{
  "_format": "hh-sol-artifact-1",
  "contractName": "ERC721Token",
  "sourceName": "contracts/ERC721Token.sol",
  "abi": [
    {
      "inputs": [
        {
          "internalType": "string",
          "name": "_name",
          "type": "string"
        },
        {
          "internalType": "string",
          "name": "_symbol",
          "type": "string"
        },
        {
          "internalType": "address",
          "name": "initialOwner",
          "type": "address"
        },
        {
          "internalType": "address",
          "name": "_factoryAddress",
          "type": "address"
        }
      ],
      "stateMutability": "nonpayable",
      "type": "constructor"
    },
    {
      "inputs": [
        {
          "internalType": "address",
          "name": "sender",
          "type": "address"
        },
        {
          "internalType": "uint256",
          "name": "tokenId",
          "type": "uint256"
        },
        {
          "internalType": "address",
          "name": "owner",
          "type": "address"
        }
      ],
      "name": "ERC721IncorrectOwner",
      "type": "error"
    },
    {
      "inputs": [
        {
          "internalType": "address",
          "name": "operator",
          "type": "address"
        },
        {
          "internalType": "uint256",
          "name": "tokenId",
          "type": "uint256"
        }
      ],
      "name": "ERC721InsufficientApproval",
      "type": "error"
    },
    {
      "inputs": [
        {
          "internalType": "address",
          "name": "approver",
          "type": "address"
        }
      ],
      "name": "ERC721InvalidApprover",
      "type": "error"
    },
    {
      "inputs": [
        {
          "internalType": "address",
          "name": "operator",
          "type": "address"
        }
      ],
      "name": "ERC721InvalidOperator",
      "type": "error"
    },
    {
      "inputs": [
        {
          "internalType": "address",
          "name": "owner",
          "type": "address"
        }
      ],
      "name": "ERC721InvalidOwner",
      "type": "error"
    },
    {
      "inputs": [
        {
          "internalType": "address",
          "name": "receiver",
          "type": "address"
        }
      ],
      "name": "ERC721InvalidReceiver",
      "type": "error"
    },
    {
      "inputs": [
        {
          "internalType": "address",
          "name": "sender",
          "type": "address"
        }
      ],
      "name": "ERC721InvalidSender",
      "type": "error"
    },
    {
      "inputs": [
        {
          "internalType": "uint256",
          "name": "tokenId",
          "type": "uint256"
        }
      ],
      "name": "ERC721NonexistentToken",
      "type": "error"
    },
    {
      "inputs": [
        {
          "internalType": "address",
          "name": "owner",
          "type": "address"
        }
      ],
      "name": "OwnableInvalidOwner",
      "type": "error"
    },
    {
      "inputs": [
        {
          "internalType": "address",
          "name": "account",
          "type": "address"
        }
      ],
      "name": "OwnableUnauthorizedAccount",
      "type": "error"
    },
    {
      "anonymous": false,
      "inputs": [
        {
          "indexed": true,
          "internalType": "address",
          "name": "owner",
          "type": "address"
        },
        {
          "indexed": true,
          "internalType": "address",
          "name": "approved",
          "type": "address"
        },
        {
          "indexed": true,
          "internalType": "uint256",
          "name": "tokenId",
          "type": "uint256"
        }
      ],
      "name": "Approval",
      "type": "event"
    },
    {
      "anonymous": false,
      "inputs": [
        {
          "indexed": true,
          "internalType": "address",
          "name": "owner",
          "type": "address"
        },
        {
          "indexed": true,
          "internalType": "address",
          "name": "operator",
          "type": "address"
        },
        {
          "indexed": false,
          "internalType": "bool",
          "name": "approved",
          "type": "bool"
        }
      ],
      "name": "ApprovalForAll",
      "type": "event"
    },
    {
      "anonymous": false,
      "inputs": [
        {
          "indexed": true,
          "internalType": "address",
          "name": "previousOwner",
          "type": "address"
        },
        {
          "indexed": true,
          "internalType": "address",
          "name": "newOwner",
          "type": "address"
        }
      ],
      "name": "OwnershipTransferred",
      "type": "event"
    },
    {
      "anonymous": false,
      "inputs": [
        {
          "indexed": true,
          "internalType": "address",
          "name": "from",
          "type": "address"
        },
        {
          "indexed": true,
          "internalType": "address",
          "name": "to",
          "type": "address"
        },
        {
          "indexed": true,
          "internalType": "uint256",
          "name": "tokenId",
          "type": "uint256"
        }
      ],
      "name": "Transfer",
      "type": "event"
    },
    {
      "inputs": [
        {
          "internalType": "address",
          "name": "to",
          "type": "address"
        },
        {
          "internalType": "uint256",
          "name": "tokenId",
          "type": "uint256"
        }
      ],
      "name": "approve",
      "outputs": [],
      "stateMutability": "nonpayable",
      "type": "function"
    },
    {
      "inputs": [
        {
          "internalType": "address",
          "name": "owner",
          "type": "address"
        }
      ],
      "name": "balanceOf",
      "outputs": [
        {
          "internalType": "uint256",
          "name": "",
          "type": "uint256"
        }
      ],
      "stateMutability": "view",
      "type": "function"
    },
    {
      "inputs": [
        {
          "internalType": "uint256",
          "name": "tokenId",
          "type": "uint256"
        }
      ],
      "name": "getApproved",
      "outputs": [
        {
          "internalType": "address",
          "name": "",
          "type": "address"
        }
      ],
      "stateMutability": "view",
      "type": "function"
    },
    {
      "inputs": [
        {
          "internalType": "address",
          "name": "owner",
          "type": "address"
        },
        {
          "internalType": "address",
          "name": "operator",
          "type": "address"
        }
      ],
      "name": "isApprovedForAll",
      "outputs": [
        {
          "internalType": "bool",
          "name": "",
          "type": "bool"
        }
      ],
      "stateMutability": "view",
      "type": "function"
    },
    {
      "inputs": [
        {
          "internalType": "address",
          "name": "to",
          "type": "address"
        },
        {
          "internalType": "string",
          "name": "uri",
          "type": "string"
        }
      ],
      "name": "mint",
      "outputs": [
        {
          "internalType": "uint256",
          "name": "",
          "type": "uint256"
        }
      ],
      "stateMutability": "nonpayable",
      "type": "function"
    },
    {
      "inputs": [],
      "name": "name",
      "outputs": [
        {
          "internalType": "string",
          "name": "",
          "type": "string"
        }
      ],
      "stateMutability": "view",
      "type": "function"
    },
    {
      "inputs": [],
      "name": "owner",
      "outputs": [
        {
          "internalType": "address",
          "name": "",
          "type": "address"
        }
      ],
      "stateMutability": "view",
      "type": "function"
    },
    {
      "inputs": [
        {
          "internalType": "uint256",
          "name": "tokenId",
          "type": "uint256"
        }
      ],
      "name": "ownerOf",
      "outputs": [
        {
          "internalType": "address",
          "name": "",
          "type": "address"
        }
      ],
      "stateMutability": "view",
      "type": "function"
    },
    {
      "inputs": [],
      "name": "renounceOwnership",
      "outputs": [],
      "stateMutability": "nonpayable",
      "type": "function"
    },
    {
      "inputs": [
        {
          "internalType": "address",
          "name": "from",
          "type": "address"
        },
        {
          "internalType": "address",
          "name": "to",
          "type": "address"
        },
        {
          "internalType": "uint256",
          "name": "tokenId",
          "type": "uint256"
        }
      ],
      "name": "safeTransferFrom",
      "outputs": [],
      "stateMutability": "nonpayable",
      "type": "function"
    },
    {
      "inputs": [
        {
          "internalType": "address",
          "name": "from",
          "type": "address"
        },
        {
          "internalType": "address",
          "name": "to",
          "type": "address"
        },
        {
          "internalType": "uint256",
          "name": "tokenId",
          "type": "uint256"
        },
        {
          "internalType": "bytes",
          "name": "data",
          "type": "bytes"
        }
      ],
      "name": "safeTransferFrom",
      "outputs": [],
      "stateMutability": "nonpayable",
      "type": "function"
    },
    {
      "inputs": [
        {
          "internalType": "address",
          "name": "operator",
          "type": "address"
        },
        {
          "internalType": "bool",
          "name": "approved",
          "type": "bool"
        }
      ],
      "name": "setApprovalForAll",
      "outputs": [],
      "stateMutability": "nonpayable",
      "type": "function"
    },
    {
      "inputs": [
        {
          "internalType": "bytes4",
          "name": "interfaceId",
          "type": "bytes4"
        }
      ],
      "name": "supportsInterface",
      "outputs": [
        {
          "internalType": "bool",
          "name": "",
          "type": "bool"
        }
      ],
      "stateMutability": "view",
      "type": "function"
    },
    {
      "inputs": [],
      "name": "symbol",
      "outputs": [
        {
          "internalType": "string",
          "name": "",
          "type": "string"
        }
      ],
      "stateMutability": "view",
      "type": "function"
    },
    {
      "inputs": [
        {
          "internalType": "uint256",
          "name": "tokenId",
          "type": "uint256"
        }
      ],
      "name": "tokenURI",
      "outputs": [
        {
          "internalType": "string",
          "name": "",
          "type": "string"
        }
      ],
      "stateMutability": "view",
      "type": "function"
    },
    {
      "inputs": [
        {
          "internalType": "address",
          "name": "from",
          "type": "address"
        },
        {
          "internalType": "address",
          "name": "to",
          "type": "address"
        },
        {
          "internalType": "uint256",
          "name": "tokenId",
          "type": "uint256"
        }
      ],
      "name": "transferFrom",
      "outputs": [],
      "stateMutability": "nonpayable",
      "type": "function"
    },
    {
      "inputs": [
        {
          "internalType": "address",
          "name": "newOwner",
          "type": "address"
        }
      ],
      "name": "transferOwnership",
      "outputs": [],
      "stateMutability": "nonpayable",
      "type": "function"
    }
  ],
  "bytecode": "0x60806040523480156200001157600080fd5b5060405162002d3b38038062002d3b8339818101604052810190620000379190620003f8565b81848481600090816200004b9190620006f3565b5080600190816200005d9190620006f3565b505050600073ffffffffffffffffffffffffffffffffffffffff168173ffffffffffffffffffffffffffffffffffffffff1603620000d55760006040517f1e4fbdf7000000000000000000000000000000000000000000000000000000008152600401620000cc9190620007eb565b60405180910390fd5b620000e6816200013a60201b60201c565b50600060078190555080600860006101000a81548173ffffffffffffffffffffffffffffffffffffffff021916908373ffffffffffffffffffffffffffffffffffffffff1602179055505050505062000808565b6000600660009054906101000a900473ffffffffffffffffffffffffffffffffffffffff16905081600660006101000a81548173ffffffffffffffffffffffffffffffffffffffff021916908373ffffffffffffffffffffffffffffffffffffffff1602179055508173ffffffffffffffffffffffffffffffffffffffff168173ffffffffffffffffffffffffffffffffffffffff167f8be0079c531659141344cd1fd0a4f28419497f9722a3daafe3b4186f6b6457e060405160405180910390a35050565b6000604051905090565b600080fd5b600080fd5b600080fd5b600080fd5b6000601f19601f8301169050919050565b7f4e487b7100000000000000000000000000000000000000000000000000000000600052604160045260246000fd5b62000269826200021e565b810181811067ffffffffffffffff821117156200028b576200028a6200022f565b5b80604052505050565b6000620002a062000200565b9050620002ae82826200025e565b919050565b600067ffffffffffffffff821115620002d157620002d06200022f565b5b620002dc826200021e565b9050602081019050919050565b60005b8381101562000309578082015181840152602081019050620002ec565b60008484015250505050565b60006200032c6200032684620002b3565b62000294565b9050828152602081018484840111156200034b576200034a62000219565b5b62000358848285620002e9565b509392505050565b600082601f83011262000378576200037762000214565b5b81516200038a84826020860162000315565b91505092915050565b600073ffffffffffffffffffffffffffffffffffffffff82169050919050565b6000620003c08262000393565b9050919050565b620003d281620003b3565b8114620003de57600080fd5b50565b600081519050620003f281620003c7565b92915050565b600080600080608085870312156200041557620004146200020a565b5b600085015167ffffffffffffffff8111156200043657620004356200020f565b5b620004448782880162000360565b945050602085015167ffffffffffffffff8111156200046857620004676200020f565b5b620004768782880162000360565b93505060406200048987828801620003e1565b92505060606200049c87828801620003e1565b91505092959194509250565b600081519050919050565b7f4e487b7100000000000000000000000000000000000000000000000000000000600052602260045260246000fd5b60006002820490506001821680620004fb57607f821691505b602082108103620005115762000510620004b3565b5b50919050565b60008190508160005260206000209050919050565b60006020601f8301049050919050565b600082821b905092915050565b6000600883026200057b7fffffffffffffffffffffffffffffffffffffffffffffffffffffffffffffffff826200053c565b6200058786836200053c565b95508019841693508086168417925050509392505050565b6000819050919050565b6000819050919050565b6000620005d4620005ce620005c8846200059f565b620005a9565b6200059f565b9050919050565b6000819050919050565b620005f083620005b3565b62000608620005ff82620005db565b84845462000549565b825550505050565b600090565b6200061f62000610565b6200062c818484620005e5565b505050565b5b8181101562000654576200064860008262000615565b60018101905062000632565b5050565b601f821115620006a3576200066d8162000517565b62000678846200052c565b8101602085101562000688578190505b620006a062000697856200052c565b83018262000631565b50505b505050565b600082821c905092915050565b6000620006c860001984600802620006a8565b1980831691505092915050565b6000620006e38383620006b5565b9150826002028217905092915050565b620006fe82620004a8565b67ffffffffffffffff8111156200071a57620007196200022f565b5b620007268254620004e2565b6200073382828562000658565b600060209050601f8311600181146200076b576000841562000756578287015190505b620007628582620006d5565b865550620007d2565b601f1984166200077b8662000517565b60005b82811015620007a5578489015182556001820191506020850194506020810190506200077e565b86831015620007c55784890151620007c1601f891682620006b5565b8355505b6001600288020188555050505b505050505050565b620007e581620003b3565b82525050565b6000602082019050620008026000830184620007da565b92915050565b61252380620008186000396000f3fe608060405234801561001057600080fd5b506004361061010b5760003560e01c8063715018a6116100a2578063b88d4fde11610071578063b88d4fde146102a4578063c87b56dd146102c0578063d0def521146102f0578063e985e9c514610320578063f2fde38b146103505761010b565b8063715018a6146102425780638da5cb5b1461024c57806395d89b411461026a578063a22cb465146102885761010b565b806323b872dd116100de57806323b872dd146101aa57806342842e0e146101c65780636352211e146101e257806370a08231146102125761010b565b806301ffc9a71461011057806306fdde0314610140578063081812fc1461015e578063095ea7b31461018e575b600080fd5b61012a6004803603810190610125919061188e565b61036c565b60405161013791906118d6565b60405180910390f35b61014861044e565b6040516101559190611981565b60405180910390f35b610178600480360381019061017391906119d9565b6104e0565b6040516101859190611a47565b60405180910390f35b6101a860048036038101906101a39190611a8e565b6104fc565b005b6101c460048036038101906101bf9190611ace565b610512565b005b6101e060048036038101906101db9190611ace565b610614565b005b6101fc60048036038101906101f791906119d9565b610634565b6040516102099190611a47565b60405180910390f35b61022c60048036038101906102279190611b21565b610646565b6040516102399190611b5d565b60405180910390f35b61024a610700565b005b610254610714565b6040516102619190611a47565b60405180910390f35b61027261073e565b60405161027f9190611981565b60405180910390f35b6102a2600480360381019061029d9190611ba4565b6107d0565b005b6102be60048036038101906102b99190611d19565b6107e6565b005b6102da60048036038101906102d591906119d9565b610803565b6040516102e79190611981565b60405180910390f35b61030a60048036038101906103059190611e3d565b6108f6565b6040516103179190611b5d565b60405180910390f35b61033a60048036038101906103359190611e99565b610a04565b60405161034791906118d6565b60405180910390f35b61036a60048036038101906103659190611b21565b610a98565b005b60007f80ac58cd000000000000000000000000000000000000000000000000000000007bffffffffffffffffffffffffffffffffffffffffffffffffffffffff1916827bffffffffffffffffffffffffffffffffffffffffffffffffffffffff1916148061043757507f5b5e139f000000000000000000000000000000000000000000000000000000007bffffffffffffffffffffffffffffffffffffffffffffffffffffffff1916827bffffffffffffffffffffffffffffffffffffffffffffffffffffffff1916145b80610447575061044682610b1e565b5b9050919050565b60606000805461045d90611f08565b80601f016020809104026020016040519081016040528092919081815260200182805461048990611f08565b80156104d65780601f106104ab576101008083540402835291602001916104d6565b820191906000526020600020905b8154815290600101906020018083116104b957829003601f168201915b5050505050905090565b60006104eb82610b88565b506104f582610c10565b9050919050565b61050e8282610509610c4d565b610c55565b5050565b600073ffffffffffffffffffffffffffffffffffffffff168273ffffffffffffffffffffffffffffffffffffffff16036105845760006040517f64a0ae9200000000000000000000000000000000000000000000000000000000815260040161057b9190611a47565b60405180910390fd5b60006105988383610593610c4d565b610c67565b90508373ffffffffffffffffffffffffffffffffffffffff168173ffffffffffffffffffffffffffffffffffffffff161461060e578382826040517f64283d7b00000000000000000000000000000000000000000000000000000000815260040161060593929190611f39565b60405180910390fd5b50505050565b61062f838383604051806020016040528060008152506107e6565b505050565b600061063f82610b88565b9050919050565b60008073ffffffffffffffffffffffffffffffffffffffff168273ffffffffffffffffffffffffffffffffffffffff16036106b95760006040517f89c62b640000000000000000000000000000000000000000000000000000000081526004016106b09190611a47565b60405180910390fd5b600360008373ffffffffffffffffffffffffffffffffffffffff1673ffffffffffffffffffffffffffffffffffffffff168152602001908152602001600020549050919050565b610708610e81565b6107126000610f08565b565b6000600660009054906101000a900473ffffffffffffffffffffffffffffffffffffffff16905090565b60606001805461074d90611f08565b80601f016020809104026020016040519081016040528092919081815260200182805461077990611f08565b80156107c65780601f1061079b576101008083540402835291602001916107c6565b820191906000526020600020905b8154815290600101906020018083116107a957829003601f168201915b5050505050905090565b6107e26107db610c4d565b8383610fce565b5050565b6107f1848484610512565b6107fd8484848461113d565b50505050565b606061080e826112f4565b61084d576040517f08c379a000000000000000000000000000000000000000000000000000000000815260040161084490611fe2565b60405180910390fd5b600060096000848152602001908152602001600020805461086d90611f08565b80601f016020809104026020016040519081016040528092919081815260200182805461089990611f08565b80156108e65780601f106108bb576101008083540402835291602001916108e6565b820191906000526020600020905b8154815290600101906020018083116108c957829003601f168201915b5050505050905080915050919050565b6000610900610714565b73ffffffffffffffffffffffffffffffffffffffff163373ffffffffffffffffffffffffffffffffffffffff1614806109865750600860009054906101000a900473ffffffffffffffffffffffffffffffffffffffff1673ffffffffffffffffffffffffffffffffffffffff163373ffffffffffffffffffffffffffffffffffffffff16145b6109c5576040517f08c379a00000000000000000000000000000000000000000000000000000000081526004016109bc9061204e565b60405180910390fd5b6001600760008282546109d8919061209d565b92505081905550600060075490506109f08482611335565b6109fa818461142e565b8091505092915050565b6000600560008473ffffffffffffffffffffffffffffffffffffffff1673ffffffffffffffffffffffffffffffffffffffff16815260200190815260200160002060008373ffffffffffffffffffffffffffffffffffffffff1673ffffffffffffffffffffffffffffffffffffffff16815260200190815260200160002060009054906101000a900460ff16905092915050565b610aa0610e81565b600073ffffffffffffffffffffffffffffffffffffffff168173ffffffffffffffffffffffffffffffffffffffff1603610b125760006040517f1e4fbdf7000000000000000000000000000000000000000000000000000000008152600401610b099190611a47565b60405180910390fd5b610b1b81610f08565b50565b60007f01ffc9a7000000000000000000000000000000000000000000000000000000007bffffffffffffffffffffffffffffffffffffffffffffffffffffffff1916827bffffffffffffffffffffffffffffffffffffffffffffffffffffffff1916149050919050565b600080610b948361149b565b9050600073ffffffffffffffffffffffffffffffffffffffff168173ffffffffffffffffffffffffffffffffffffffff1603610c0757826040517f7e273289000000000000000000000000000000000000000000000000000000008152600401610bfe9190611b5d565b60405180910390fd5b80915050919050565b60006004600083815260200190815260200160002060009054906101000a900473ffffffffffffffffffffffffffffffffffffffff169050919050565b600033905090565b610c6283838360016114d8565b505050565b600080610c738461149b565b9050600073ffffffffffffffffffffffffffffffffffffffff168373ffffffffffffffffffffffffffffffffffffffff1614610cb557610cb481848661169d565b5b600073ffffffffffffffffffffffffffffffffffffffff168173ffffffffffffffffffffffffffffffffffffffff1614610d4657610cf76000856000806114d8565b6001600360008373ffffffffffffffffffffffffffffffffffffffff1673ffffffffffffffffffffffffffffffffffffffff168152602001908152602001600020600082825403925050819055505b600073ffffffffffffffffffffffffffffffffffffffff168573ffffffffffffffffffffffffffffffffffffffff1614610dc9576001600360008773ffffffffffffffffffffffffffffffffffffffff1673ffffffffffffffffffffffffffffffffffffffff168152602001908152602001600020600082825401925050819055505b846002600086815260200190815260200160002060006101000a81548173ffffffffffffffffffffffffffffffffffffffff021916908373ffffffffffffffffffffffffffffffffffffffff160217905550838573ffffffffffffffffffffffffffffffffffffffff168273ffffffffffffffffffffffffffffffffffffffff167fddf252ad1be2c89b69c2b068fc378daa952ba7f163c4a11628f55a4df523b3ef60405160405180910390a4809150509392505050565b610e89610c4d565b73ffffffffffffffffffffffffffffffffffffffff16610ea7610714565b73ffffffffffffffffffffffffffffffffffffffff1614610f0657610eca610c4d565b6040517f118cdaa7000000000000000000000000000000000000000000000000000000008152600401610efd9190611a47565b60405180910390fd5b565b6000600660009054906101000a900473ffffffffffffffffffffffffffffffffffffffff16905081600660006101000a81548173ffffffffffffffffffffffffffffffffffffffff021916908373ffffffffffffffffffffffffffffffffffffffff1602179055508173ffffffffffffffffffffffffffffffffffffffff168173ffffffffffffffffffffffffffffffffffffffff167f8be0079c531659141344cd1fd0a4f28419497f9722a3daafe3b4186f6b6457e060405160405180910390a35050565b600073ffffffffffffffffffffffffffffffffffffffff168273ffffffffffffffffffffffffffffffffffffffff160361103f57816040517f5b08ba180000000000000000000000000000000000000000000000000000000081526004016110369190611a47565b60405180910390fd5b80600560008573ffffffffffffffffffffffffffffffffffffffff1673ffffffffffffffffffffffffffffffffffffffff16815260200190815260200160002060008473ffffffffffffffffffffffffffffffffffffffff1673ffffffffffffffffffffffffffffffffffffffff16815260200190815260200160002060006101000a81548160ff0219169083151502179055508173ffffffffffffffffffffffffffffffffffffffff168373ffffffffffffffffffffffffffffffffffffffff167f17307eab39ab6107e8899845ad3d59bd9653f200f220920489ca2b5937696c318360405161113091906118d6565b60405180910390a3505050565b60008373ffffffffffffffffffffffffffffffffffffffff163b11156112ee578273ffffffffffffffffffffffffffffffffffffffff1663150b7a02611181610c4d565b8685856040518563ffffffff1660e01b81526004016111a39493929190612126565b6020604051808303816000875af19250505080156111df57506040513d601f19601f820116820180604052508101906111dc9190612187565b60015b611263573d806000811461120f576040519150601f19603f3d011682016040523d82523d6000602084013e611214565b606091505b50600081510361125b57836040517f64a0ae920000000000000000000000000000000000000000000000000000000081526004016112529190611a47565b60405180910390fd5b805181602001fd5b63150b7a0260e01b7bffffffffffffffffffffffffffffffffffffffffffffffffffffffff1916817bffffffffffffffffffffffffffffffffffffffffffffffffffffffff1916146112ec57836040517f64a0ae920000000000000000000000000000000000000000000000000000000081526004016112e39190611a47565b60405180910390fd5b505b50505050565b60008073ffffffffffffffffffffffffffffffffffffffff1661131683610634565b73ffffffffffffffffffffffffffffffffffffffff1614159050919050565b600073ffffffffffffffffffffffffffffffffffffffff168273ffffffffffffffffffffffffffffffffffffffff16036113a75760006040517f64a0ae9200000000000000000000000000000000000000000000000000000000815260040161139e9190611a47565b60405180910390fd5b60006113b583836000610c67565b9050600073ffffffffffffffffffffffffffffffffffffffff168173ffffffffffffffffffffffffffffffffffffffff16146114295760006040517f73c6ac6e0000000000000000000000000000000000000000000000000000000081526004016114209190611a47565b60405180910390fd5b505050565b611437826112f4565b611476576040517f08c379a000000000000000000000000000000000000000000000000000000000815260040161146d90612226565b60405180910390fd5b8060096000848152602001908152602001600020908161149691906123f2565b505050565b60006002600083815260200190815260200160002060009054906101000a900473ffffffffffffffffffffffffffffffffffffffff169050919050565b80806115115750600073ffffffffffffffffffffffffffffffffffffffff168273ffffffffffffffffffffffffffffffffffffffff1614155b1561164557600061152184610b88565b9050600073ffffffffffffffffffffffffffffffffffffffff168373ffffffffffffffffffffffffffffffffffffffff161415801561158c57508273ffffffffffffffffffffffffffffffffffffffff168173ffffffffffffffffffffffffffffffffffffffff1614155b801561159f575061159d8184610a04565b155b156115e157826040517fa9fbf51f0000000000000000000000000000000000000000000000000000000081526004016115d89190611a47565b60405180910390fd5b811561164357838573ffffffffffffffffffffffffffffffffffffffff168273ffffffffffffffffffffffffffffffffffffffff167f8c5be1e5ebec7d5bd14f71427d1e84f3dd0314c0f7b2291e5b200ac8c7c3b92560405160405180910390a45b505b836004600085815260200190815260200160002060006101000a81548173ffffffffffffffffffffffffffffffffffffffff021916908373ffffffffffffffffffffffffffffffffffffffff16021790555050505050565b6116a8838383611761565b61175c57600073ffffffffffffffffffffffffffffffffffffffff168373ffffffffffffffffffffffffffffffffffffffff160361171d57806040517f7e2732890000000000000000000000000000000000000000000000000000000081526004016117149190611b5d565b60405180910390fd5b81816040517f177e802f0000000000000000000000000000000000000000000000000000000081526004016117539291906124c4565b60405180910390fd5b505050565b60008073ffffffffffffffffffffffffffffffffffffffff168373ffffffffffffffffffffffffffffffffffffffff161415801561181957508273ffffffffffffffffffffffffffffffffffffffff168473ffffffffffffffffffffffffffffffffffffffff1614806117da57506117d98484610a04565b5b8061181857508273ffffffffffffffffffffffffffffffffffffffff1661180083610c10565b73ffffffffffffffffffffffffffffffffffffffff16145b5b90509392505050565b6000604051905090565b600080fd5b600080fd5b60007fffffffff0000000000000000000000000000000000000000000000000000000082169050919050565b61186b81611836565b811461187657600080fd5b50565b60008135905061188881611862565b92915050565b6000602082840312156118a4576118a361182c565b5b60006118b284828501611879565b91505092915050565b60008115159050919050565b6118d0816118bb565b82525050565b60006020820190506118eb60008301846118c7565b92915050565b600081519050919050565b600082825260208201905092915050565b60005b8381101561192b578082015181840152602081019050611910565b60008484015250505050565b6000601f19601f8301169050919050565b6000611953826118f1565b61195d81856118fc565b935061196d81856020860161190d565b61197681611937565b840191505092915050565b6000602082019050818103600083015261199b8184611948565b905092915050565b6000819050919050565b6119b6816119a3565b81146119c157600080fd5b50565b6000813590506119d3816119ad565b92915050565b6000602082840312156119ef576119ee61182c565b5b60006119fd848285016119c4565b91505092915050565b600073ffffffffffffffffffffffffffffffffffffffff82169050919050565b6000611a3182611a06565b9050919050565b611a4181611a26565b82525050565b6000602082019050611a5c6000830184611a38565b92915050565b611a6b81611a26565b8114611a7657600080fd5b50565b600081359050611a8881611a62565b92915050565b60008060408385031215611aa557611aa461182c565b5b6000611ab385828601611a79565b9250506020611ac4858286016119c4565b9150509250929050565b600080600060608486031215611ae757611ae661182c565b5b6000611af586828701611a79565b9350506020611b0686828701611a79565b9250506040611b17868287016119c4565b9150509250925092565b600060208284031215611b3757611b3661182c565b5b6000611b4584828501611a79565b91505092915050565b611b57816119a3565b82525050565b6000602082019050611b726000830184611b4e565b92915050565b611b81816118bb565b8114611b8c57600080fd5b50565b600081359050611b9e81611b78565b92915050565b60008060408385031215611bbb57611bba61182c565b5b6000611bc985828601611a79565b9250506020611bda85828601611b8f565b9150509250929050565b600080fd5b600080fd5b7f4e487b7100000000000000000000000000000000000000000000000000000000600052604160045260246000fd5b611c2682611937565b810181811067ffffffffffffffff82111715611c4557611c44611bee565b5b80604052505050565b6000611c58611822565b9050611c648282611c1d565b919050565b600067ffffffffffffffff821115611c8457611c83611bee565b5b611c8d82611937565b9050602081019050919050565b82818337600083830152505050565b6000611cbc611cb784611c69565b611c4e565b905082815260208101848484011115611cd857611cd7611be9565b5b611ce3848285611c9a565b509392505050565b600082601f830112611d0057611cff611be4565b5b8135611d10848260208601611ca9565b91505092915050565b60008060008060808587031215611d3357611d3261182c565b5b6000611d4187828801611a79565b9450506020611d5287828801611a79565b9350506040611d63878288016119c4565b925050606085013567ffffffffffffffff811115611d8457611d83611831565b5b611d9087828801611ceb565b91505092959194509250565b600067ffffffffffffffff821115611db757611db6611bee565b5b611dc082611937565b9050602081019050919050565b6000611de0611ddb84611d9c565b611c4e565b905082815260208101848484011115611dfc57611dfb611be9565b5b611e07848285611c9a565b509392505050565b600082601f830112611e2457611e23611be4565b5b8135611e34848260208601611dcd565b91505092915050565b60008060408385031215611e5457611e5361182c565b5b6000611e6285828601611a79565b925050602083013567ffffffffffffffff811115611e8357611e82611831565b5b611e8f85828601611e0f565b9150509250929050565b60008060408385031215611eb057611eaf61182c565b5b6000611ebe85828601611a79565b9250506020611ecf85828601611a79565b9150509250929050565b7f4e487b7100000000000000000000000000000000000000000000000000000000600052602260045260246000fd5b60006002820490506001821680611f2057607f821691505b602082108103611f3357611f32611ed9565b5b50919050565b6000606082019050611f4e6000830186611a38565b611f5b6020830185611b4e565b611f686040830184611a38565b949350505050565b7f4552433732314d657461646174613a2055524920717565727920666f72206e6f60008201527f6e6578697374656e7420746f6b656e0000000000000000000000000000000000602082015250565b6000611fcc602f836118fc565b9150611fd782611f70565b604082019050919050565b60006020820190508181036000830152611ffb81611fbf565b9050919050565b7f4e6f7420617574686f72697a656420746f206d696e7400000000000000000000600082015250565b60006120386016836118fc565b915061204382612002565b602082019050919050565b600060208201905081810360008301526120678161202b565b9050919050565b7f4e487b7100000000000000000000000000000000000000000000000000000000600052601160045260246000fd5b60006120a8826119a3565b91506120b3836119a3565b92508282019050808211156120cb576120ca61206e565b5b92915050565b600081519050919050565b600082825260208201905092915050565b60006120f8826120d1565b61210281856120dc565b935061211281856020860161190d565b61211b81611937565b840191505092915050565b600060808201905061213b6000830187611a38565b6121486020830186611a38565b6121556040830185611b4e565b818103606083015261216781846120ed565b905095945050505050565b60008151905061218181611862565b92915050565b60006020828403121561219d5761219c61182c565b5b60006121ab84828501612172565b91505092915050565b7f4552433732314d657461646174613a2055524920736574206f66206e6f6e657860008201527f697374656e7420746f6b656e0000000000000000000000000000000000000000602082015250565b6000612210602c836118fc565b915061221b826121b4565b604082019050919050565b6000602082019050818103600083015261223f81612203565b9050919050565b60008190508160005260206000209050919050565b60006020601f8301049050919050565b600082821b905092915050565b6000600883026122a87fffffffffffffffffffffffffffffffffffffffffffffffffffffffffffffffff8261226b565b6122b2868361226b565b95508019841693508086168417925050509392505050565b6000819050919050565b60006122ef6122ea6122e5846119a3565b6122ca565b6119a3565b9050919050565b6000819050919050565b612309836122d4565b61231d612315826122f6565b848454612278565b825550505050565b600090565b612332612325565b61233d818484612300565b505050565b5b818110156123615761235660008261232a565b600181019050612343565b5050565b601f8211156123a65761237781612246565b6123808461225b565b8101602085101561238f578190505b6123a361239b8561225b565b830182612342565b50505b505050565b600082821c905092915050565b60006123c9600019846008026123ab565b1980831691505092915050565b60006123e283836123b8565b9150826002028217905092915050565b6123fb826118f1565b67ffffffffffffffff81111561241457612413611bee565b5b61241e8254611f08565b612429828285612365565b600060209050601f83116001811461245c576000841561244a578287015190505b61245485826123d6565b8655506124bc565b601f19841661246a86612246565b60005b828110156124925784890151825560018201915060208501945060208101905061246d565b868310156124af57848901516124ab601f8916826123b8565b8355505b6001600288020188555050505b505050505050565b60006040820190506124d96000830185611a38565b6124e66020830184611b4e565b939250505056fea264697066735822122048dc6fcce8d94f2b267c3f7ba2f25c82bed4882f7c07fb98ff00d91ca776fe3364736f6c63430008140033",
  "linkReferences": {},
  "deployedLinkReferences": {}
}