{
  "_format": "hh-sol-artifact-1",
  "contractName": "ERC721Factory",
  "sourceName": "contracts/ERC721Factory.sol",
  "abi": [
    {
      "inputs": [
        {
          "internalType": "string",
          "name": "name",
          "type": "string"
        },
        {
          "internalType": "string",
          "name": "symbol",
          "type": "string"
        }
      ],
      "name": "createToken",
      "outputs": [],
      "stateMutability": "nonpayable",
      "type": "function"
    },
    {
      "inputs": [
        {
          "internalType": "uint256",
          "name": "",
          "type": "uint256"
        }
      ],
      "name": "deployedTokens",
      "outputs": [
        {
          "internalType": "contract ERC721Token",
          "name": "",
          "type": "address"
        }
      ],
      "stateMutability": "view",
      "type": "function"
    },
    {
      "inputs": [],
      "name": "getDeployedTokens",
      "outputs": [
        {
          "internalType": "contract ERC721Token[]",
          "name": "",
          "type": "address[]"
        }
      ],
      "stateMutability": "view",
      "type": "function"
    },
    {
      "inputs": [
        {
          "internalType": "uint256",
          "name": "index",
          "type": "uint256"
        },
        {
          "internalType": "address",
          "name": "to",
          "type": "address"
        },
        {
          "internalType": "string",
          "name": "uri",
          "type": "string"
        }
      ],
      "name": "mintToken",
      "outputs": [],
      "stateMutability": "nonpayable",
      "type": "function"
    }
  ],
  "bytecode": "0x608060405234801561001057600080fd5b50613743806100206000396000f3fe60806040523480156200001157600080fd5b5060043610620000525760003560e01c80632f2f2d561462000057578063622ae7aa1462000077578063ca8197011462000099578063ec81aadb14620000b9575b600080fd5b6200007560048036038101906200006f91906200059d565b620000ef565b005b6200008162000198565b6040516200009091906200076a565b60405180910390f35b620000b76004803603810190620000b191906200080e565b62000228565b005b620000d76004803603810190620000d1919062000889565b620003d9565b604051620000e69190620008cc565b60405180910390f35b6000828233604051620001029062000419565b620001109392919062000983565b604051809103906000f0801580156200012d573d6000803e3d6000fd5b5090506000819080600181540180825580915050600190039060005260206000200160009091909190916101000a81548173ffffffffffffffffffffffffffffffffffffffff021916908373ffffffffffffffffffffffffffffffffffffffff160217905550505050565b606060008054806020026020016040519081016040528092919081815260200182805480156200021e57602002820191906000526020600020905b8160009054906101000a900473ffffffffffffffffffffffffffffffffffffffff1673ffffffffffffffffffffffffffffffffffffffff1681526020019060010190808311620001d3575b5050505050905090565b600080848154811062000240576200023f620009ce565b5b9060005260206000200160009054906101000a900473ffffffffffffffffffffffffffffffffffffffff1690508073ffffffffffffffffffffffffffffffffffffffff16638da5cb5b6040518163ffffffff1660e01b8152600401602060405180830381865afa158015620002b9573d6000803e3d6000fd5b505050506040513d601f19601f82011682018060405250810190620002df919062000a14565b73ffffffffffffffffffffffffffffffffffffffff163373ffffffffffffffffffffffffffffffffffffffff16146200034f576040517f08c379a0000000000000000000000000000000000000000000000000000000008152600401620003469062000abc565b60405180910390fd5b8073ffffffffffffffffffffffffffffffffffffffff1663d0def52184846040518363ffffffff1660e01b81526004016200038c92919062000ade565b6020604051808303816000875af1158015620003ac573d6000803e3d6000fd5b505050506040513d601f19601f82011682018060405250810190620003d2919062000b29565b5050505050565b60008181548110620003ea57600080fd5b906000526020600020016000915054906101000a900473ffffffffffffffffffffffffffffffffffffffff1681565b612bb28062000b5c83390190565b6000604051905090565b600080fd5b600080fd5b600080fd5b600080fd5b6000601f19601f8301169050919050565b7f4e487b7100000000000000000000000000000000000000000000000000000000600052604160045260246000fd5b620004908262000445565b810181811067ffffffffffffffff82111715620004b257620004b162000456565b5b80604052505050565b6000620004c762000427565b9050620004d5828262000485565b919050565b600067ffffffffffffffff821115620004f857620004f762000456565b5b620005038262000445565b9050602081019050919050565b82818337600083830152505050565b6000620005366200053084620004da565b620004bb565b90508281526020810184848401111562000555576200055462000440565b5b6200056284828562000510565b509392505050565b600082601f8301126200058257620005816200043b565b5b8135620005948482602086016200051f565b91505092915050565b60008060408385031215620005b757620005b662000431565b5b600083013567ffffffffffffffff811115620005d857620005d762000436565b5b620005e6858286016200056a565b925050602083013567ffffffffffffffff8111156200060a576200060962000436565b5b62000618858286016200056a565b9150509250929050565b600081519050919050565b600082825260208201905092915050565b6000819050602082019050919050565b600073ffffffffffffffffffffffffffffffffffffffff82169050919050565b6000819050919050565b600062000699620006936200068d846200064e565b6200066e565b6200064e565b9050919050565b6000620006ad8262000678565b9050919050565b6000620006c182620006a0565b9050919050565b620006d381620006b4565b82525050565b6000620006e78383620006c8565b60208301905092915050565b6000602082019050919050565b60006200070d8262000622565b6200071981856200062d565b935062000726836200063e565b8060005b838110156200075d578151620007418882620006d9565b97506200074e83620006f3565b9250506001810190506200072a565b5085935050505092915050565b6000602082019050818103600083015262000786818462000700565b905092915050565b6000819050919050565b620007a3816200078e565b8114620007af57600080fd5b50565b600081359050620007c38162000798565b92915050565b6000620007d6826200064e565b9050919050565b620007e881620007c9565b8114620007f457600080fd5b50565b6000813590506200080881620007dd565b92915050565b6000806000606084860312156200082a576200082962000431565b5b60006200083a86828701620007b2565b93505060206200084d86828701620007f7565b925050604084013567ffffffffffffffff81111562000871576200087062000436565b5b6200087f868287016200056a565b9150509250925092565b600060208284031215620008a257620008a162000431565b5b6000620008b284828501620007b2565b91505092915050565b620008c681620006b4565b82525050565b6000602082019050620008e36000830184620008bb565b92915050565b600081519050919050565b600082825260208201905092915050565b60005b838110156200092557808201518184015260208101905062000908565b60008484015250505050565b60006200093e82620008e9565b6200094a8185620008f4565b93506200095c81856020860162000905565b620009678162000445565b840191505092915050565b6200097d81620007c9565b82525050565b600060608201905081810360008301526200099f818662000931565b90508181036020830152620009b5818562000931565b9050620009c6604083018462000972565b949350505050565b7f4e487b7100000000000000000000000000000000000000000000000000000000600052603260045260246000fd5b60008151905062000a0e81620007dd565b92915050565b60006020828403121562000a2d5762000a2c62000431565b5b600062000a3d84828501620009fd565b91505092915050565b7f4f6e6c792074686520746f6b656e206f776e65722063616e206d696e7420746f60008201527f6b656e7300000000000000000000000000000000000000000000000000000000602082015250565b600062000aa4602483620008f4565b915062000ab18262000a46565b604082019050919050565b6000602082019050818103600083015262000ad78162000a95565b9050919050565b600060408201905062000af5600083018562000972565b818103602083015262000b09818462000931565b90509392505050565b60008151905062000b238162000798565b92915050565b60006020828403121562000b425762000b4162000431565b5b600062000b528482850162000b12565b9150509291505056fe60806040523480156200001157600080fd5b5060405162002bb238038062002bb28339818101604052810190620000379190620003b6565b80838381600090816200004b91906200069b565b5080600190816200005d91906200069b565b505050600073ffffffffffffffffffffffffffffffffffffffff168173ffffffffffffffffffffffffffffffffffffffff1603620000d55760006040517f1e4fbdf7000000000000000000000000000000000000000000000000000000008152600401620000cc919062000793565b60405180910390fd5b620000e681620000f860201b60201c565b506000600781905550505050620007b0565b6000600660009054906101000a900473ffffffffffffffffffffffffffffffffffffffff16905081600660006101000a81548173ffffffffffffffffffffffffffffffffffffffff021916908373ffffffffffffffffffffffffffffffffffffffff1602179055508173ffffffffffffffffffffffffffffffffffffffff168173ffffffffffffffffffffffffffffffffffffffff167f8be0079c531659141344cd1fd0a4f28419497f9722a3daafe3b4186f6b6457e060405160405180910390a35050565b6000604051905090565b600080fd5b600080fd5b600080fd5b600080fd5b6000601f19601f8301169050919050565b7f4e487b7100000000000000000000000000000000000000000000000000000000600052604160045260246000fd5b6200022782620001dc565b810181811067ffffffffffffffff82111715620002495762000248620001ed565b5b80604052505050565b60006200025e620001be565b90506200026c82826200021c565b919050565b600067ffffffffffffffff8211156200028f576200028e620001ed565b5b6200029a82620001dc565b9050602081019050919050565b60005b83811015620002c7578082015181840152602081019050620002aa565b60008484015250505050565b6000620002ea620002e48462000271565b62000252565b905082815260208101848484011115620003095762000308620001d7565b5b62000316848285620002a7565b509392505050565b600082601f830112620003365762000335620001d2565b5b815162000348848260208601620002d3565b91505092915050565b600073ffffffffffffffffffffffffffffffffffffffff82169050919050565b60006200037e8262000351565b9050919050565b620003908162000371565b81146200039c57600080fd5b50565b600081519050620003b08162000385565b92915050565b600080600060608486031215620003d257620003d1620001c8565b5b600084015167ffffffffffffffff811115620003f357620003f2620001cd565b5b62000401868287016200031e565b935050602084015167ffffffffffffffff811115620004255762000424620001cd565b5b62000433868287016200031e565b925050604062000446868287016200039f565b9150509250925092565b600081519050919050565b7f4e487b7100000000000000000000000000000000000000000000000000000000600052602260045260246000fd5b60006002820490506001821680620004a357607f821691505b602082108103620004b957620004b86200045b565b5b50919050565b60008190508160005260206000209050919050565b60006020601f8301049050919050565b600082821b905092915050565b600060088302620005237fffffffffffffffffffffffffffffffffffffffffffffffffffffffffffffffff82620004e4565b6200052f8683620004e4565b95508019841693508086168417925050509392505050565b6000819050919050565b6000819050919050565b60006200057c62000576620005708462000547565b62000551565b62000547565b9050919050565b6000819050919050565b62000598836200055b565b620005b0620005a78262000583565b848454620004f1565b825550505050565b600090565b620005c7620005b8565b620005d48184846200058d565b505050565b5b81811015620005fc57620005f0600082620005bd565b600181019050620005da565b5050565b601f8211156200064b576200061581620004bf565b6200062084620004d4565b8101602085101562000630578190505b620006486200063f85620004d4565b830182620005d9565b50505b505050565b600082821c905092915050565b6000620006706000198460080262000650565b1980831691505092915050565b60006200068b83836200065d565b9150826002028217905092915050565b620006a68262000450565b67ffffffffffffffff811115620006c257620006c1620001ed565b5b620006ce82546200048a565b620006db82828562000600565b600060209050601f831160018114620007135760008415620006fe578287015190505b6200070a85826200067d565b8655506200077a565b601f1984166200072386620004bf565b60005b828110156200074d5784890151825560018201915060208501945060208101905062000726565b868310156200076d578489015162000769601f8916826200065d565b8355505b6001600288020188555050505b505050505050565b6200078d8162000371565b82525050565b6000602082019050620007aa600083018462000782565b92915050565b6123f280620007c06000396000f3fe608060405234801561001057600080fd5b506004361061010b5760003560e01c8063715018a6116100a2578063b88d4fde11610071578063b88d4fde146102a4578063c87b56dd146102c0578063d0def521146102f0578063e985e9c514610320578063f2fde38b146103505761010b565b8063715018a6146102425780638da5cb5b1461024c57806395d89b411461026a578063a22cb465146102885761010b565b806323b872dd116100de57806323b872dd146101aa57806342842e0e146101c65780636352211e146101e257806370a08231146102125761010b565b806301ffc9a71461011057806306fdde0314610140578063081812fc1461015e578063095ea7b31461018e575b600080fd5b61012a600480360381019061012591906117c9565b61036c565b6040516101379190611811565b60405180910390f35b61014861044e565b60405161015591906118bc565b60405180910390f35b61017860048036038101906101739190611914565b6104e0565b6040516101859190611982565b60405180910390f35b6101a860048036038101906101a391906119c9565b6104fc565b005b6101c460048036038101906101bf9190611a09565b610512565b005b6101e060048036038101906101db9190611a09565b610614565b005b6101fc60048036038101906101f79190611914565b610634565b6040516102099190611982565b60405180910390f35b61022c60048036038101906102279190611a5c565b610646565b6040516102399190611a98565b60405180910390f35b61024a610700565b005b610254610714565b6040516102619190611982565b60405180910390f35b61027261073e565b60405161027f91906118bc565b60405180910390f35b6102a2600480360381019061029d9190611adf565b6107d0565b005b6102be60048036038101906102b99190611c54565b6107e6565b005b6102da60048036038101906102d59190611914565b610803565b6040516102e791906118bc565b60405180910390f35b61030a60048036038101906103059190611d78565b6108f6565b6040516103179190611a98565b60405180910390f35b61033a60048036038101906103359190611dd4565b61093f565b6040516103479190611811565b60405180910390f35b61036a60048036038101906103659190611a5c565b6109d3565b005b60007f80ac58cd000000000000000000000000000000000000000000000000000000007bffffffffffffffffffffffffffffffffffffffffffffffffffffffff1916827bffffffffffffffffffffffffffffffffffffffffffffffffffffffff1916148061043757507f5b5e139f000000000000000000000000000000000000000000000000000000007bffffffffffffffffffffffffffffffffffffffffffffffffffffffff1916827bffffffffffffffffffffffffffffffffffffffffffffffffffffffff1916145b80610447575061044682610a59565b5b9050919050565b60606000805461045d90611e43565b80601f016020809104026020016040519081016040528092919081815260200182805461048990611e43565b80156104d65780601f106104ab576101008083540402835291602001916104d6565b820191906000526020600020905b8154815290600101906020018083116104b957829003601f168201915b5050505050905090565b60006104eb82610ac3565b506104f582610b4b565b9050919050565b61050e8282610509610b88565b610b90565b5050565b600073ffffffffffffffffffffffffffffffffffffffff168273ffffffffffffffffffffffffffffffffffffffff16036105845760006040517f64a0ae9200000000000000000000000000000000000000000000000000000000815260040161057b9190611982565b60405180910390fd5b60006105988383610593610b88565b610ba2565b90508373ffffffffffffffffffffffffffffffffffffffff168173ffffffffffffffffffffffffffffffffffffffff161461060e578382826040517f64283d7b00000000000000000000000000000000000000000000000000000000815260040161060593929190611e74565b60405180910390fd5b50505050565b61062f838383604051806020016040528060008152506107e6565b505050565b600061063f82610ac3565b9050919050565b60008073ffffffffffffffffffffffffffffffffffffffff168273ffffffffffffffffffffffffffffffffffffffff16036106b95760006040517f89c62b640000000000000000000000000000000000000000000000000000000081526004016106b09190611982565b60405180910390fd5b600360008373ffffffffffffffffffffffffffffffffffffffff1673ffffffffffffffffffffffffffffffffffffffff168152602001908152602001600020549050919050565b610708610dbc565b6107126000610e43565b565b6000600660009054906101000a900473ffffffffffffffffffffffffffffffffffffffff16905090565b60606001805461074d90611e43565b80601f016020809104026020016040519081016040528092919081815260200182805461077990611e43565b80156107c65780601f1061079b576101008083540402835291602001916107c6565b820191906000526020600020905b8154815290600101906020018083116107a957829003601f168201915b5050505050905090565b6107e26107db610b88565b8383610f09565b5050565b6107f1848484610512565b6107fd84848484611078565b50505050565b606061080e8261122f565b61084d576040517f08c379a000000000000000000000000000000000000000000000000000000000815260040161084490611f1d565b60405180910390fd5b600060086000848152602001908152602001600020805461086d90611e43565b80601f016020809104026020016040519081016040528092919081815260200182805461089990611e43565b80156108e65780601f106108bb576101008083540402835291602001916108e6565b820191906000526020600020905b8154815290600101906020018083116108c957829003601f168201915b5050505050905080915050919050565b6000610900610dbc565b6001600760008282546109139190611f6c565b925050819055506000600754905061092b8482611270565b6109358184611369565b8091505092915050565b6000600560008473ffffffffffffffffffffffffffffffffffffffff1673ffffffffffffffffffffffffffffffffffffffff16815260200190815260200160002060008373ffffffffffffffffffffffffffffffffffffffff1673ffffffffffffffffffffffffffffffffffffffff16815260200190815260200160002060009054906101000a900460ff16905092915050565b6109db610dbc565b600073ffffffffffffffffffffffffffffffffffffffff168173ffffffffffffffffffffffffffffffffffffffff1603610a4d5760006040517f1e4fbdf7000000000000000000000000000000000000000000000000000000008152600401610a449190611982565b60405180910390fd5b610a5681610e43565b50565b60007f01ffc9a7000000000000000000000000000000000000000000000000000000007bffffffffffffffffffffffffffffffffffffffffffffffffffffffff1916827bffffffffffffffffffffffffffffffffffffffffffffffffffffffff1916149050919050565b600080610acf836113d6565b9050600073ffffffffffffffffffffffffffffffffffffffff168173ffffffffffffffffffffffffffffffffffffffff1603610b4257826040517f7e273289000000000000000000000000000000000000000000000000000000008152600401610b399190611a98565b60405180910390fd5b80915050919050565b60006004600083815260200190815260200160002060009054906101000a900473ffffffffffffffffffffffffffffffffffffffff169050919050565b600033905090565b610b9d8383836001611413565b505050565b600080610bae846113d6565b9050600073ffffffffffffffffffffffffffffffffffffffff168373ffffffffffffffffffffffffffffffffffffffff1614610bf057610bef8184866115d8565b5b600073ffffffffffffffffffffffffffffffffffffffff168173ffffffffffffffffffffffffffffffffffffffff1614610c8157610c32600085600080611413565b6001600360008373ffffffffffffffffffffffffffffffffffffffff1673ffffffffffffffffffffffffffffffffffffffff168152602001908152602001600020600082825403925050819055505b600073ffffffffffffffffffffffffffffffffffffffff168573ffffffffffffffffffffffffffffffffffffffff1614610d04576001600360008773ffffffffffffffffffffffffffffffffffffffff1673ffffffffffffffffffffffffffffffffffffffff168152602001908152602001600020600082825401925050819055505b846002600086815260200190815260200160002060006101000a81548173ffffffffffffffffffffffffffffffffffffffff021916908373ffffffffffffffffffffffffffffffffffffffff160217905550838573ffffffffffffffffffffffffffffffffffffffff168273ffffffffffffffffffffffffffffffffffffffff167fddf252ad1be2c89b69c2b068fc378daa952ba7f163c4a11628f55a4df523b3ef60405160405180910390a4809150509392505050565b610dc4610b88565b73ffffffffffffffffffffffffffffffffffffffff16610de2610714565b73ffffffffffffffffffffffffffffffffffffffff1614610e4157610e05610b88565b6040517f118cdaa7000000000000000000000000000000000000000000000000000000008152600401610e389190611982565b60405180910390fd5b565b6000600660009054906101000a900473ffffffffffffffffffffffffffffffffffffffff16905081600660006101000a81548173ffffffffffffffffffffffffffffffffffffffff021916908373ffffffffffffffffffffffffffffffffffffffff1602179055508173ffffffffffffffffffffffffffffffffffffffff168173ffffffffffffffffffffffffffffffffffffffff167f8be0079c531659141344cd1fd0a4f28419497f9722a3daafe3b4186f6b6457e060405160405180910390a35050565b600073ffffffffffffffffffffffffffffffffffffffff168273ffffffffffffffffffffffffffffffffffffffff1603610f7a57816040517f5b08ba18000000000000000000000000000000000000000000000000000000008152600401610f719190611982565b60405180910390fd5b80600560008573ffffffffffffffffffffffffffffffffffffffff1673ffffffffffffffffffffffffffffffffffffffff16815260200190815260200160002060008473ffffffffffffffffffffffffffffffffffffffff1673ffffffffffffffffffffffffffffffffffffffff16815260200190815260200160002060006101000a81548160ff0219169083151502179055508173ffffffffffffffffffffffffffffffffffffffff168373ffffffffffffffffffffffffffffffffffffffff167f17307eab39ab6107e8899845ad3d59bd9653f200f220920489ca2b5937696c318360405161106b9190611811565b60405180910390a3505050565b60008373ffffffffffffffffffffffffffffffffffffffff163b1115611229578273ffffffffffffffffffffffffffffffffffffffff1663150b7a026110bc610b88565b8685856040518563ffffffff1660e01b81526004016110de9493929190611ff5565b6020604051808303816000875af192505050801561111a57506040513d601f19601f820116820180604052508101906111179190612056565b60015b61119e573d806000811461114a576040519150601f19603f3d011682016040523d82523d6000602084013e61114f565b606091505b50600081510361119657836040517f64a0ae9200000000000000000000000000000000000000000000000000000000815260040161118d9190611982565b60405180910390fd5b805181602001fd5b63150b7a0260e01b7bffffffffffffffffffffffffffffffffffffffffffffffffffffffff1916817bffffffffffffffffffffffffffffffffffffffffffffffffffffffff19161461122757836040517f64a0ae9200000000000000000000000000000000000000000000000000000000815260040161121e9190611982565b60405180910390fd5b505b50505050565b60008073ffffffffffffffffffffffffffffffffffffffff1661125183610634565b73ffffffffffffffffffffffffffffffffffffffff1614159050919050565b600073ffffffffffffffffffffffffffffffffffffffff168273ffffffffffffffffffffffffffffffffffffffff16036112e25760006040517f64a0ae920000000000000000000000000000000000000000000000000000000081526004016112d99190611982565b60405180910390fd5b60006112f083836000610ba2565b9050600073ffffffffffffffffffffffffffffffffffffffff168173ffffffffffffffffffffffffffffffffffffffff16146113645760006040517f73c6ac6e00000000000000000000000000000000000000000000000000000000815260040161135b9190611982565b60405180910390fd5b505050565b6113728261122f565b6113b1576040517f08c379a00000000000000000000000000000000000000000000000000000000081526004016113a8906120f5565b60405180910390fd5b806008600084815260200190815260200160002090816113d191906122c1565b505050565b60006002600083815260200190815260200160002060009054906101000a900473ffffffffffffffffffffffffffffffffffffffff169050919050565b808061144c5750600073ffffffffffffffffffffffffffffffffffffffff168273ffffffffffffffffffffffffffffffffffffffff1614155b1561158057600061145c84610ac3565b9050600073ffffffffffffffffffffffffffffffffffffffff168373ffffffffffffffffffffffffffffffffffffffff16141580156114c757508273ffffffffffffffffffffffffffffffffffffffff168173ffffffffffffffffffffffffffffffffffffffff1614155b80156114da57506114d8818461093f565b155b1561151c57826040517fa9fbf51f0000000000000000000000000000000000000000000000000000000081526004016115139190611982565b60405180910390fd5b811561157e57838573ffffffffffffffffffffffffffffffffffffffff168273ffffffffffffffffffffffffffffffffffffffff167f8c5be1e5ebec7d5bd14f71427d1e84f3dd0314c0f7b2291e5b200ac8c7c3b92560405160405180910390a45b505b836004600085815260200190815260200160002060006101000a81548173ffffffffffffffffffffffffffffffffffffffff021916908373ffffffffffffffffffffffffffffffffffffffff16021790555050505050565b6115e383838361169c565b61169757600073ffffffffffffffffffffffffffffffffffffffff168373ffffffffffffffffffffffffffffffffffffffff160361165857806040517f7e27328900000000000000000000000000000000000000000000000000000000815260040161164f9190611a98565b60405180910390fd5b81816040517f177e802f00000000000000000000000000000000000000000000000000000000815260040161168e929190612393565b60405180910390fd5b505050565b60008073ffffffffffffffffffffffffffffffffffffffff168373ffffffffffffffffffffffffffffffffffffffff161415801561175457508273ffffffffffffffffffffffffffffffffffffffff168473ffffffffffffffffffffffffffffffffffffffff1614806117155750611714848461093f565b5b8061175357508273ffffffffffffffffffffffffffffffffffffffff1661173b83610b4b565b73ffffffffffffffffffffffffffffffffffffffff16145b5b90509392505050565b6000604051905090565b600080fd5b600080fd5b60007fffffffff0000000000000000000000000000000000000000000000000000000082169050919050565b6117a681611771565b81146117b157600080fd5b50565b6000813590506117c38161179d565b92915050565b6000602082840312156117df576117de611767565b5b60006117ed848285016117b4565b91505092915050565b60008115159050919050565b61180b816117f6565b82525050565b60006020820190506118266000830184611802565b92915050565b600081519050919050565b600082825260208201905092915050565b60005b8381101561186657808201518184015260208101905061184b565b60008484015250505050565b6000601f19601f8301169050919050565b600061188e8261182c565b6118988185611837565b93506118a8818560208601611848565b6118b181611872565b840191505092915050565b600060208201905081810360008301526118d68184611883565b905092915050565b6000819050919050565b6118f1816118de565b81146118fc57600080fd5b50565b60008135905061190e816118e8565b92915050565b60006020828403121561192a57611929611767565b5b6000611938848285016118ff565b91505092915050565b600073ffffffffffffffffffffffffffffffffffffffff82169050919050565b600061196c82611941565b9050919050565b61197c81611961565b82525050565b60006020820190506119976000830184611973565b92915050565b6119a681611961565b81146119b157600080fd5b50565b6000813590506119c38161199d565b92915050565b600080604083850312156119e0576119df611767565b5b60006119ee858286016119b4565b92505060206119ff858286016118ff565b9150509250929050565b600080600060608486031215611a2257611a21611767565b5b6000611a30868287016119b4565b9350506020611a41868287016119b4565b9250506040611a52868287016118ff565b9150509250925092565b600060208284031215611a7257611a71611767565b5b6000611a80848285016119b4565b91505092915050565b611a92816118de565b82525050565b6000602082019050611aad6000830184611a89565b92915050565b611abc816117f6565b8114611ac757600080fd5b50565b600081359050611ad981611ab3565b92915050565b60008060408385031215611af657611af5611767565b5b6000611b04858286016119b4565b9250506020611b1585828601611aca565b9150509250929050565b600080fd5b600080fd5b7f4e487b7100000000000000000000000000000000000000000000000000000000600052604160045260246000fd5b611b6182611872565b810181811067ffffffffffffffff82111715611b8057611b7f611b29565b5b80604052505050565b6000611b9361175d565b9050611b9f8282611b58565b919050565b600067ffffffffffffffff821115611bbf57611bbe611b29565b5b611bc882611872565b9050602081019050919050565b82818337600083830152505050565b6000611bf7611bf284611ba4565b611b89565b905082815260208101848484011115611c1357611c12611b24565b5b611c1e848285611bd5565b509392505050565b600082601f830112611c3b57611c3a611b1f565b5b8135611c4b848260208601611be4565b91505092915050565b60008060008060808587031215611c6e57611c6d611767565b5b6000611c7c878288016119b4565b9450506020611c8d878288016119b4565b9350506040611c9e878288016118ff565b925050606085013567ffffffffffffffff811115611cbf57611cbe61176c565b5b611ccb87828801611c26565b91505092959194509250565b600067ffffffffffffffff821115611cf257611cf1611b29565b5b611cfb82611872565b9050602081019050919050565b6000611d1b611d1684611cd7565b611b89565b905082815260208101848484011115611d3757611d36611b24565b5b611d42848285611bd5565b509392505050565b600082601f830112611d5f57611d5e611b1f565b5b8135611d6f848260208601611d08565b91505092915050565b60008060408385031215611d8f57611d8e611767565b5b6000611d9d858286016119b4565b925050602083013567ffffffffffffffff811115611dbe57611dbd61176c565b5b611dca85828601611d4a565b9150509250929050565b60008060408385031215611deb57611dea611767565b5b6000611df9858286016119b4565b9250506020611e0a858286016119b4565b9150509250929050565b7f4e487b7100000000000000000000000000000000000000000000000000000000600052602260045260246000fd5b60006002820490506001821680611e5b57607f821691505b602082108103611e6e57611e6d611e14565b5b50919050565b6000606082019050611e896000830186611973565b611e966020830185611a89565b611ea36040830184611973565b949350505050565b7f4552433732314d657461646174613a2055524920717565727920666f72206e6f60008201527f6e6578697374656e7420746f6b656e0000000000000000000000000000000000602082015250565b6000611f07602f83611837565b9150611f1282611eab565b604082019050919050565b60006020820190508181036000830152611f3681611efa565b9050919050565b7f4e487b7100000000000000000000000000000000000000000000000000000000600052601160045260246000fd5b6000611f77826118de565b9150611f82836118de565b9250828201905080821115611f9a57611f99611f3d565b5b92915050565b600081519050919050565b600082825260208201905092915050565b6000611fc782611fa0565b611fd18185611fab565b9350611fe1818560208601611848565b611fea81611872565b840191505092915050565b600060808201905061200a6000830187611973565b6120176020830186611973565b6120246040830185611a89565b81810360608301526120368184611fbc565b905095945050505050565b6000815190506120508161179d565b92915050565b60006020828403121561206c5761206b611767565b5b600061207a84828501612041565b91505092915050565b7f4552433732314d657461646174613a2055524920736574206f66206e6f6e657860008201527f697374656e7420746f6b656e0000000000000000000000000000000000000000602082015250565b60006120df602c83611837565b91506120ea82612083565b604082019050919050565b6000602082019050818103600083015261210e816120d2565b9050919050565b60008190508160005260206000209050919050565b60006020601f8301049050919050565b600082821b905092915050565b6000600883026121777fffffffffffffffffffffffffffffffffffffffffffffffffffffffffffffffff8261213a565b612181868361213a565b95508019841693508086168417925050509392505050565b6000819050919050565b60006121be6121b96121b4846118de565b612199565b6118de565b9050919050565b6000819050919050565b6121d8836121a3565b6121ec6121e4826121c5565b848454612147565b825550505050565b600090565b6122016121f4565b61220c8184846121cf565b505050565b5b81811015612230576122256000826121f9565b600181019050612212565b5050565b601f8211156122755761224681612115565b61224f8461212a565b8101602085101561225e578190505b61227261226a8561212a565b830182612211565b50505b505050565b600082821c905092915050565b60006122986000198460080261227a565b1980831691505092915050565b60006122b18383612287565b9150826002028217905092915050565b6122ca8261182c565b67ffffffffffffffff8111156122e3576122e2611b29565b5b6122ed8254611e43565b6122f8828285612234565b600060209050601f83116001811461232b5760008415612319578287015190505b61232385826122a5565b86555061238b565b601f19841661233986612115565b60005b828110156123615784890151825560018201915060208501945060208101905061233c565b8683101561237e578489015161237a601f891682612287565b8355505b6001600288020188555050505b505050505050565b60006040820190506123a86000830185611973565b6123b56020830184611a89565b939250505056fea26469706673582212204534e2827e4d5023397806257415adb7a9be7af792ff7a5a88257e643addda7f64736f6c63430008140033a264697066735822122054df67f64dc0b8d771ceac2cf5c719512e39939076cf1c855356e0f30682b07b64736f6c63430008140033",
  "linkReferences": {},
  "deployedLinkReferences": {}
}