{
  "_format": "hh-sol-artifact-1",
  "contractName": "ERC721Token",
  "sourceName": "contracts/ERC721Token.sol",
  "abi": [
    {
      "inputs": [
        {
          "internalType": "string",
          "name": "_name",
          "type": "string"
        },
        {
          "internalType": "string",
          "name": "_symbol",
          "type": "string"
        },
        {
          "internalType": "address",
          "name": "initialOwner",
          "type": "address"
        },
        {
          "internalType": "address",
          "name": "_factoryAddress",
          "type": "address"
        }
      ],
      "stateMutability": "nonpayable",
      "type": "constructor"
    },
    {
      "inputs": [
        {
          "internalType": "address",
          "name": "sender",
          "type": "address"
        },
        {
          "internalType": "uint256",
          "name": "tokenId",
          "type": "uint256"
        },
        {
          "internalType": "address",
          "name": "owner",
          "type": "address"
        }
      ],
      "name": "ERC721IncorrectOwner",
      "type": "error"
    },
    {
      "inputs": [
        {
          "internalType": "address",
          "name": "operator",
          "type": "address"
        },
        {
          "internalType": "uint256",
          "name": "tokenId",
          "type": "uint256"
        }
      ],
      "name": "ERC721InsufficientApproval",
      "type": "error"
    },
    {
      "inputs": [
        {
          "internalType": "address",
          "name": "approver",
          "type": "address"
        }
      ],
      "name": "ERC721InvalidApprover",
      "type": "error"
    },
    {
      "inputs": [
        {
          "internalType": "address",
          "name": "operator",
          "type": "address"
        }
      ],
      "name": "ERC721InvalidOperator",
      "type": "error"
    },
    {
      "inputs": [
        {
          "internalType": "address",
          "name": "owner",
          "type": "address"
        }
      ],
      "name": "ERC721InvalidOwner",
      "type": "error"
    },
    {
      "inputs": [
        {
          "internalType": "address",
          "name": "receiver",
          "type": "address"
        }
      ],
      "name": "ERC721InvalidReceiver",
      "type": "error"
    },
    {
      "inputs": [
        {
          "internalType": "address",
          "name": "sender",
          "type": "address"
        }
      ],
      "name": "ERC721InvalidSender",
      "type": "error"
    },
    {
      "inputs": [
        {
          "internalType": "uint256",
          "name": "tokenId",
          "type": "uint256"
        }
      ],
      "name": "ERC721NonexistentToken",
      "type": "error"
    },
    {
      "inputs": [
        {
          "internalType": "address",
          "name": "owner",
          "type": "address"
        }
      ],
      "name": "OwnableInvalidOwner",
      "type": "error"
    },
    {
      "inputs": [
        {
          "internalType": "address",
          "name": "account",
          "type": "address"
        }
      ],
      "name": "OwnableUnauthorizedAccount",
      "type": "error"
    },
    {
      "anonymous": false,
      "inputs": [
        {
          "indexed": true,
          "internalType": "address",
          "name": "owner",
          "type": "address"
        },
        {
          "indexed": true,
          "internalType": "address",
          "name": "approved",
          "type": "address"
        },
        {
          "indexed": true,
          "internalType": "uint256",
          "name": "tokenId",
          "type": "uint256"
        }
      ],
      "name": "Approval",
      "type": "event"
    },
    {
      "anonymous": false,
      "inputs": [
        {
          "indexed": true,
          "internalType": "address",
          "name": "owner",
          "type": "address"
        },
        {
          "indexed": true,
          "internalType": "address",
          "name": "operator",
          "type": "address"
        },
        {
          "indexed": false,
          "internalType": "bool",
          "name": "approved",
          "type": "bool"
        }
      ],
      "name": "ApprovalForAll",
      "type": "event"
    },
    {
      "anonymous": false,
      "inputs": [
        {
          "indexed": true,
          "internalType": "address",
          "name": "previousOwner",
          "type": "address"
        },
        {
          "indexed": true,
          "internalType": "address",
          "name": "newOwner",
          "type": "address"
        }
      ],
      "name": "OwnershipTransferred",
      "type": "event"
    },
    {
      "anonymous": false,
      "inputs": [
        {
          "indexed": true,
          "internalType": "address",
          "name": "from",
          "type": "address"
        },
        {
          "indexed": true,
          "internalType": "address",
          "name": "to",
          "type": "address"
        },
        {
          "indexed": true,
          "internalType": "uint256",
          "name": "tokenId",
          "type": "uint256"
        }
      ],
      "name": "Transfer",
      "type": "event"
    },
    {
      "inputs": [
        {
          "internalType": "address",
          "name": "to",
          "type": "address"
        },
        {
          "internalType": "uint256",
          "name": "tokenId",
          "type": "uint256"
        }
      ],
      "name": "approve",
      "outputs": [],
      "stateMutability": "nonpayable",
      "type": "function"
    },
    {
      "inputs": [
        {
          "internalType": "address",
          "name": "owner",
          "type": "address"
        }
      ],
      "name": "balanceOf",
      "outputs": [
        {
          "internalType": "uint256",
          "name": "",
          "type": "uint256"
        }
      ],
      "stateMutability": "view",
      "type": "function"
    },
    {
      "inputs": [],
      "name": "getAllURIs",
      "outputs": [
        {
          "internalType": "string[]",
          "name": "",
          "type": "string[]"
        }
      ],
      "stateMutability": "view",
      "type": "function"
    },
    {
      "inputs": [
        {
          "internalType": "uint256",
          "name": "tokenId",
          "type": "uint256"
        }
      ],
      "name": "getApproved",
      "outputs": [
        {
          "internalType": "address",
          "name": "",
          "type": "address"
        }
      ],
      "stateMutability": "view",
      "type": "function"
    },
    {
      "inputs": [
        {
          "internalType": "address",
          "name": "owner",
          "type": "address"
        },
        {
          "internalType": "address",
          "name": "operator",
          "type": "address"
        }
      ],
      "name": "isApprovedForAll",
      "outputs": [
        {
          "internalType": "bool",
          "name": "",
          "type": "bool"
        }
      ],
      "stateMutability": "view",
      "type": "function"
    },
    {
      "inputs": [
        {
          "internalType": "address",
          "name": "to",
          "type": "address"
        },
        {
          "internalType": "string",
          "name": "uri",
          "type": "string"
        }
      ],
      "name": "mint",
      "outputs": [
        {
          "internalType": "uint256",
          "name": "",
          "type": "uint256"
        }
      ],
      "stateMutability": "nonpayable",
      "type": "function"
    },
    {
      "inputs": [],
      "name": "name",
      "outputs": [
        {
          "internalType": "string",
          "name": "",
          "type": "string"
        }
      ],
      "stateMutability": "view",
      "type": "function"
    },
    {
      "inputs": [],
      "name": "owner",
      "outputs": [
        {
          "internalType": "address",
          "name": "",
          "type": "address"
        }
      ],
      "stateMutability": "view",
      "type": "function"
    },
    {
      "inputs": [
        {
          "internalType": "uint256",
          "name": "tokenId",
          "type": "uint256"
        }
      ],
      "name": "ownerOf",
      "outputs": [
        {
          "internalType": "address",
          "name": "",
          "type": "address"
        }
      ],
      "stateMutability": "view",
      "type": "function"
    },
    {
      "inputs": [],
      "name": "renounceOwnership",
      "outputs": [],
      "stateMutability": "nonpayable",
      "type": "function"
    },
    {
      "inputs": [
        {
          "internalType": "address",
          "name": "from",
          "type": "address"
        },
        {
          "internalType": "address",
          "name": "to",
          "type": "address"
        },
        {
          "internalType": "uint256",
          "name": "tokenId",
          "type": "uint256"
        }
      ],
      "name": "safeTransferFrom",
      "outputs": [],
      "stateMutability": "nonpayable",
      "type": "function"
    },
    {
      "inputs": [
        {
          "internalType": "address",
          "name": "from",
          "type": "address"
        },
        {
          "internalType": "address",
          "name": "to",
          "type": "address"
        },
        {
          "internalType": "uint256",
          "name": "tokenId",
          "type": "uint256"
        },
        {
          "internalType": "bytes",
          "name": "data",
          "type": "bytes"
        }
      ],
      "name": "safeTransferFrom",
      "outputs": [],
      "stateMutability": "nonpayable",
      "type": "function"
    },
    {
      "inputs": [
        {
          "internalType": "address",
          "name": "operator",
          "type": "address"
        },
        {
          "internalType": "bool",
          "name": "approved",
          "type": "bool"
        }
      ],
      "name": "setApprovalForAll",
      "outputs": [],
      "stateMutability": "nonpayable",
      "type": "function"
    },
    {
      "inputs": [
        {
          "internalType": "bytes4",
          "name": "interfaceId",
          "type": "bytes4"
        }
      ],
      "name": "supportsInterface",
      "outputs": [
        {
          "internalType": "bool",
          "name": "",
          "type": "bool"
        }
      ],
      "stateMutability": "view",
      "type": "function"
    },
    {
      "inputs": [],
      "name": "symbol",
      "outputs": [
        {
          "internalType": "string",
          "name": "",
          "type": "string"
        }
      ],
      "stateMutability": "view",
      "type": "function"
    },
    {
      "inputs": [
        {
          "internalType": "uint256",
          "name": "tokenId",
          "type": "uint256"
        }
      ],
      "name": "tokenURI",
      "outputs": [
        {
          "internalType": "string",
          "name": "",
          "type": "string"
        }
      ],
      "stateMutability": "view",
      "type": "function"
    },
    {
      "inputs": [
        {
          "internalType": "address",
          "name": "from",
          "type": "address"
        },
        {
          "internalType": "address",
          "name": "to",
          "type": "address"
        },
        {
          "internalType": "uint256",
          "name": "tokenId",
          "type": "uint256"
        }
      ],
      "name": "transferFrom",
      "outputs": [],
      "stateMutability": "nonpayable",
      "type": "function"
    },
    {
      "inputs": [
        {
          "internalType": "address",
          "name": "newOwner",
          "type": "address"
        }
      ],
      "name": "transferOwnership",
      "outputs": [],
      "stateMutability": "nonpayable",
      "type": "function"
    }
  ],
  "bytecode": "0x60806040523480156200001157600080fd5b5060405162003084380380620030848339818101604052810190620000379190620003f8565b81848481600090816200004b9190620006f3565b5080600190816200005d9190620006f3565b505050600073ffffffffffffffffffffffffffffffffffffffff168173ffffffffffffffffffffffffffffffffffffffff1603620000d55760006040517f1e4fbdf7000000000000000000000000000000000000000000000000000000008152600401620000cc9190620007eb565b60405180910390fd5b620000e6816200013a60201b60201c565b50600060078190555080600860006101000a81548173ffffffffffffffffffffffffffffffffffffffff021916908373ffffffffffffffffffffffffffffffffffffffff1602179055505050505062000808565b6000600660009054906101000a900473ffffffffffffffffffffffffffffffffffffffff16905081600660006101000a81548173ffffffffffffffffffffffffffffffffffffffff021916908373ffffffffffffffffffffffffffffffffffffffff1602179055508173ffffffffffffffffffffffffffffffffffffffff168173ffffffffffffffffffffffffffffffffffffffff167f8be0079c531659141344cd1fd0a4f28419497f9722a3daafe3b4186f6b6457e060405160405180910390a35050565b6000604051905090565b600080fd5b600080fd5b600080fd5b600080fd5b6000601f19601f8301169050919050565b7f4e487b7100000000000000000000000000000000000000000000000000000000600052604160045260246000fd5b62000269826200021e565b810181811067ffffffffffffffff821117156200028b576200028a6200022f565b5b80604052505050565b6000620002a062000200565b9050620002ae82826200025e565b919050565b600067ffffffffffffffff821115620002d157620002d06200022f565b5b620002dc826200021e565b9050602081019050919050565b60005b8381101562000309578082015181840152602081019050620002ec565b60008484015250505050565b60006200032c6200032684620002b3565b62000294565b9050828152602081018484840111156200034b576200034a62000219565b5b62000358848285620002e9565b509392505050565b600082601f83011262000378576200037762000214565b5b81516200038a84826020860162000315565b91505092915050565b600073ffffffffffffffffffffffffffffffffffffffff82169050919050565b6000620003c08262000393565b9050919050565b620003d281620003b3565b8114620003de57600080fd5b50565b600081519050620003f281620003c7565b92915050565b600080600080608085870312156200041557620004146200020a565b5b600085015167ffffffffffffffff8111156200043657620004356200020f565b5b620004448782880162000360565b945050602085015167ffffffffffffffff8111156200046857620004676200020f565b5b620004768782880162000360565b93505060406200048987828801620003e1565b92505060606200049c87828801620003e1565b91505092959194509250565b600081519050919050565b7f4e487b7100000000000000000000000000000000000000000000000000000000600052602260045260246000fd5b60006002820490506001821680620004fb57607f821691505b602082108103620005115762000510620004b3565b5b50919050565b60008190508160005260206000209050919050565b60006020601f8301049050919050565b600082821b905092915050565b6000600883026200057b7fffffffffffffffffffffffffffffffffffffffffffffffffffffffffffffffff826200053c565b6200058786836200053c565b95508019841693508086168417925050509392505050565b6000819050919050565b6000819050919050565b6000620005d4620005ce620005c8846200059f565b620005a9565b6200059f565b9050919050565b6000819050919050565b620005f083620005b3565b62000608620005ff82620005db565b84845462000549565b825550505050565b600090565b6200061f62000610565b6200062c818484620005e5565b505050565b5b8181101562000654576200064860008262000615565b60018101905062000632565b5050565b601f821115620006a3576200066d8162000517565b62000678846200052c565b8101602085101562000688578190505b620006a062000697856200052c565b83018262000631565b50505b505050565b600082821c905092915050565b6000620006c860001984600802620006a8565b1980831691505092915050565b6000620006e38383620006b5565b9150826002028217905092915050565b620006fe82620004a8565b67ffffffffffffffff8111156200071a57620007196200022f565b5b620007268254620004e2565b6200073382828562000658565b600060209050601f8311600181146200076b576000841562000756578287015190505b620007628582620006d5565b865550620007d2565b601f1984166200077b8662000517565b60005b82811015620007a5578489015182556001820191506020850194506020810190506200077e565b86831015620007c55784890151620007c1601f891682620006b5565b8355505b6001600288020188555050505b505050505050565b620007e581620003b3565b82525050565b6000602082019050620008026000830184620007da565b92915050565b61286c80620008186000396000f3fe608060405234801561001057600080fd5b50600436106101165760003560e01c80638da5cb5b116100a2578063c87b56dd11610071578063c87b56dd146102cb578063d0def521146102fb578063da815b8e1461032b578063e985e9c514610349578063f2fde38b1461037957610116565b80638da5cb5b1461025757806395d89b4114610275578063a22cb46514610293578063b88d4fde146102af57610116565b806323b872dd116100e957806323b872dd146101b557806342842e0e146101d15780636352211e146101ed57806370a082311461021d578063715018a61461024d57610116565b806301ffc9a71461011b57806306fdde031461014b578063081812fc14610169578063095ea7b314610199575b600080fd5b610135600480360381019061013091906119fe565b610395565b6040516101429190611a46565b60405180910390f35b610153610477565b6040516101609190611af1565b60405180910390f35b610183600480360381019061017e9190611b49565b610509565b6040516101909190611bb7565b60405180910390f35b6101b360048036038101906101ae9190611bfe565b610525565b005b6101cf60048036038101906101ca9190611c3e565b61053b565b005b6101eb60048036038101906101e69190611c3e565b61063d565b005b61020760048036038101906102029190611b49565b61065d565b6040516102149190611bb7565b60405180910390f35b61023760048036038101906102329190611c91565b61066f565b6040516102449190611ccd565b60405180910390f35b610255610729565b005b61025f61073d565b60405161026c9190611bb7565b60405180910390f35b61027d610767565b60405161028a9190611af1565b60405180910390f35b6102ad60048036038101906102a89190611d14565b6107f9565b005b6102c960048036038101906102c49190611e89565b61080f565b005b6102e560048036038101906102e09190611b49565b61082c565b6040516102f29190611af1565b60405180910390f35b61031560048036038101906103109190611fad565b61091f565b6040516103229190611ccd565b60405180910390f35b610333610a2d565b6040516103409190612115565b60405180910390f35b610363600480360381019061035e9190612137565b610b74565b6040516103709190611a46565b60405180910390f35b610393600480360381019061038e9190611c91565b610c08565b005b60007f80ac58cd000000000000000000000000000000000000000000000000000000007bffffffffffffffffffffffffffffffffffffffffffffffffffffffff1916827bffffffffffffffffffffffffffffffffffffffffffffffffffffffff1916148061046057507f5b5e139f000000000000000000000000000000000000000000000000000000007bffffffffffffffffffffffffffffffffffffffffffffffffffffffff1916827bffffffffffffffffffffffffffffffffffffffffffffffffffffffff1916145b80610470575061046f82610c8e565b5b9050919050565b606060008054610486906121a6565b80601f01602080910402602001604051908101604052809291908181526020018280546104b2906121a6565b80156104ff5780601f106104d4576101008083540402835291602001916104ff565b820191906000526020600020905b8154815290600101906020018083116104e257829003601f168201915b5050505050905090565b600061051482610cf8565b5061051e82610d80565b9050919050565b6105378282610532610dbd565b610dc5565b5050565b600073ffffffffffffffffffffffffffffffffffffffff168273ffffffffffffffffffffffffffffffffffffffff16036105ad5760006040517f64a0ae920000000000000000000000000000000000000000000000000000000081526004016105a49190611bb7565b60405180910390fd5b60006105c183836105bc610dbd565b610dd7565b90508373ffffffffffffffffffffffffffffffffffffffff168173ffffffffffffffffffffffffffffffffffffffff1614610637578382826040517f64283d7b00000000000000000000000000000000000000000000000000000000815260040161062e939291906121d7565b60405180910390fd5b50505050565b6106588383836040518060200160405280600081525061080f565b505050565b600061066882610cf8565b9050919050565b60008073ffffffffffffffffffffffffffffffffffffffff168273ffffffffffffffffffffffffffffffffffffffff16036106e25760006040517f89c62b640000000000000000000000000000000000000000000000000000000081526004016106d99190611bb7565b60405180910390fd5b600360008373ffffffffffffffffffffffffffffffffffffffff1673ffffffffffffffffffffffffffffffffffffffff168152602001908152602001600020549050919050565b610731610ff1565b61073b6000611078565b565b6000600660009054906101000a900473ffffffffffffffffffffffffffffffffffffffff16905090565b606060018054610776906121a6565b80601f01602080910402602001604051908101604052809291908181526020018280546107a2906121a6565b80156107ef5780601f106107c4576101008083540402835291602001916107ef565b820191906000526020600020905b8154815290600101906020018083116107d257829003601f168201915b5050505050905090565b61080b610804610dbd565b838361113e565b5050565b61081a84848461053b565b610826848484846112ad565b50505050565b606061083782611464565b610876576040517f08c379a000000000000000000000000000000000000000000000000000000000815260040161086d90612280565b60405180910390fd5b6000600960008481526020019081526020016000208054610896906121a6565b80601f01602080910402602001604051908101604052809291908181526020018280546108c2906121a6565b801561090f5780601f106108e45761010080835404028352916020019161090f565b820191906000526020600020905b8154815290600101906020018083116108f257829003601f168201915b5050505050905080915050919050565b600061092961073d565b73ffffffffffffffffffffffffffffffffffffffff163373ffffffffffffffffffffffffffffffffffffffff1614806109af5750600860009054906101000a900473ffffffffffffffffffffffffffffffffffffffff1673ffffffffffffffffffffffffffffffffffffffff163373ffffffffffffffffffffffffffffffffffffffff16145b6109ee576040517f08c379a00000000000000000000000000000000000000000000000000000000081526004016109e5906122ec565b60405180910390fd5b600160076000828254610a01919061233b565b9250508190555060006007549050610a1984826114a5565b610a23818461159e565b8091505092915050565b6060600060075467ffffffffffffffff811115610a4d57610a4c611d5e565b5b604051908082528060200260200182016040528015610a8057816020015b6060815260200190600190039081610a6b5790505b5090506000600190505b6007548111610b6c57600960008281526020019081526020016000208054610ab1906121a6565b80601f0160208091040260200160405190810160405280929190818152602001828054610add906121a6565b8015610b2a5780601f10610aff57610100808354040283529160200191610b2a565b820191906000526020600020905b815481529060010190602001808311610b0d57829003601f168201915b505050505082600183610b3d919061236f565b81518110610b4e57610b4d6123a3565b5b60200260200101819052508080610b64906123d2565b915050610a8a565b508091505090565b6000600560008473ffffffffffffffffffffffffffffffffffffffff1673ffffffffffffffffffffffffffffffffffffffff16815260200190815260200160002060008373ffffffffffffffffffffffffffffffffffffffff1673ffffffffffffffffffffffffffffffffffffffff16815260200190815260200160002060009054906101000a900460ff16905092915050565b610c10610ff1565b600073ffffffffffffffffffffffffffffffffffffffff168173ffffffffffffffffffffffffffffffffffffffff1603610c825760006040517f1e4fbdf7000000000000000000000000000000000000000000000000000000008152600401610c799190611bb7565b60405180910390fd5b610c8b81611078565b50565b60007f01ffc9a7000000000000000000000000000000000000000000000000000000007bffffffffffffffffffffffffffffffffffffffffffffffffffffffff1916827bffffffffffffffffffffffffffffffffffffffffffffffffffffffff1916149050919050565b600080610d048361160b565b9050600073ffffffffffffffffffffffffffffffffffffffff168173ffffffffffffffffffffffffffffffffffffffff1603610d7757826040517f7e273289000000000000000000000000000000000000000000000000000000008152600401610d6e9190611ccd565b60405180910390fd5b80915050919050565b60006004600083815260200190815260200160002060009054906101000a900473ffffffffffffffffffffffffffffffffffffffff169050919050565b600033905090565b610dd28383836001611648565b505050565b600080610de38461160b565b9050600073ffffffffffffffffffffffffffffffffffffffff168373ffffffffffffffffffffffffffffffffffffffff1614610e2557610e2481848661180d565b5b600073ffffffffffffffffffffffffffffffffffffffff168173ffffffffffffffffffffffffffffffffffffffff1614610eb657610e67600085600080611648565b6001600360008373ffffffffffffffffffffffffffffffffffffffff1673ffffffffffffffffffffffffffffffffffffffff168152602001908152602001600020600082825403925050819055505b600073ffffffffffffffffffffffffffffffffffffffff168573ffffffffffffffffffffffffffffffffffffffff1614610f39576001600360008773ffffffffffffffffffffffffffffffffffffffff1673ffffffffffffffffffffffffffffffffffffffff168152602001908152602001600020600082825401925050819055505b846002600086815260200190815260200160002060006101000a81548173ffffffffffffffffffffffffffffffffffffffff021916908373ffffffffffffffffffffffffffffffffffffffff160217905550838573ffffffffffffffffffffffffffffffffffffffff168273ffffffffffffffffffffffffffffffffffffffff167fddf252ad1be2c89b69c2b068fc378daa952ba7f163c4a11628f55a4df523b3ef60405160405180910390a4809150509392505050565b610ff9610dbd565b73ffffffffffffffffffffffffffffffffffffffff1661101761073d565b73ffffffffffffffffffffffffffffffffffffffff16146110765761103a610dbd565b6040517f118cdaa700000000000000000000000000000000000000000000000000000000815260040161106d9190611bb7565b60405180910390fd5b565b6000600660009054906101000a900473ffffffffffffffffffffffffffffffffffffffff16905081600660006101000a81548173ffffffffffffffffffffffffffffffffffffffff021916908373ffffffffffffffffffffffffffffffffffffffff1602179055508173ffffffffffffffffffffffffffffffffffffffff168173ffffffffffffffffffffffffffffffffffffffff167f8be0079c531659141344cd1fd0a4f28419497f9722a3daafe3b4186f6b6457e060405160405180910390a35050565b600073ffffffffffffffffffffffffffffffffffffffff168273ffffffffffffffffffffffffffffffffffffffff16036111af57816040517f5b08ba180000000000000000000000000000000000000000000000000000000081526004016111a69190611bb7565b60405180910390fd5b80600560008573ffffffffffffffffffffffffffffffffffffffff1673ffffffffffffffffffffffffffffffffffffffff16815260200190815260200160002060008473ffffffffffffffffffffffffffffffffffffffff1673ffffffffffffffffffffffffffffffffffffffff16815260200190815260200160002060006101000a81548160ff0219169083151502179055508173ffffffffffffffffffffffffffffffffffffffff168373ffffffffffffffffffffffffffffffffffffffff167f17307eab39ab6107e8899845ad3d59bd9653f200f220920489ca2b5937696c31836040516112a09190611a46565b60405180910390a3505050565b60008373ffffffffffffffffffffffffffffffffffffffff163b111561145e578273ffffffffffffffffffffffffffffffffffffffff1663150b7a026112f1610dbd565b8685856040518563ffffffff1660e01b8152600401611313949392919061246f565b6020604051808303816000875af192505050801561134f57506040513d601f19601f8201168201806040525081019061134c91906124d0565b60015b6113d3573d806000811461137f576040519150601f19603f3d011682016040523d82523d6000602084013e611384565b606091505b5060008151036113cb57836040517f64a0ae920000000000000000000000000000000000000000000000000000000081526004016113c29190611bb7565b60405180910390fd5b805181602001fd5b63150b7a0260e01b7bffffffffffffffffffffffffffffffffffffffffffffffffffffffff1916817bffffffffffffffffffffffffffffffffffffffffffffffffffffffff19161461145c57836040517f64a0ae920000000000000000000000000000000000000000000000000000000081526004016114539190611bb7565b60405180910390fd5b505b50505050565b60008073ffffffffffffffffffffffffffffffffffffffff166114868361065d565b73ffffffffffffffffffffffffffffffffffffffff1614159050919050565b600073ffffffffffffffffffffffffffffffffffffffff168273ffffffffffffffffffffffffffffffffffffffff16036115175760006040517f64a0ae9200000000000000000000000000000000000000000000000000000000815260040161150e9190611bb7565b60405180910390fd5b600061152583836000610dd7565b9050600073ffffffffffffffffffffffffffffffffffffffff168173ffffffffffffffffffffffffffffffffffffffff16146115995760006040517f73c6ac6e0000000000000000000000000000000000000000000000000000000081526004016115909190611bb7565b60405180910390fd5b505050565b6115a782611464565b6115e6576040517f08c379a00000000000000000000000000000000000000000000000000000000081526004016115dd9061256f565b60405180910390fd5b80600960008481526020019081526020016000209081611606919061273b565b505050565b60006002600083815260200190815260200160002060009054906101000a900473ffffffffffffffffffffffffffffffffffffffff169050919050565b80806116815750600073ffffffffffffffffffffffffffffffffffffffff168273ffffffffffffffffffffffffffffffffffffffff1614155b156117b557600061169184610cf8565b9050600073ffffffffffffffffffffffffffffffffffffffff168373ffffffffffffffffffffffffffffffffffffffff16141580156116fc57508273ffffffffffffffffffffffffffffffffffffffff168173ffffffffffffffffffffffffffffffffffffffff1614155b801561170f575061170d8184610b74565b155b1561175157826040517fa9fbf51f0000000000000000000000000000000000000000000000000000000081526004016117489190611bb7565b60405180910390fd5b81156117b357838573ffffffffffffffffffffffffffffffffffffffff168273ffffffffffffffffffffffffffffffffffffffff167f8c5be1e5ebec7d5bd14f71427d1e84f3dd0314c0f7b2291e5b200ac8c7c3b92560405160405180910390a45b505b836004600085815260200190815260200160002060006101000a81548173ffffffffffffffffffffffffffffffffffffffff021916908373ffffffffffffffffffffffffffffffffffffffff16021790555050505050565b6118188383836118d1565b6118cc57600073ffffffffffffffffffffffffffffffffffffffff168373ffffffffffffffffffffffffffffffffffffffff160361188d57806040517f7e2732890000000000000000000000000000000000000000000000000000000081526004016118849190611ccd565b60405180910390fd5b81816040517f177e802f0000000000000000000000000000000000000000000000000000000081526004016118c392919061280d565b60405180910390fd5b505050565b60008073ffffffffffffffffffffffffffffffffffffffff168373ffffffffffffffffffffffffffffffffffffffff161415801561198957508273ffffffffffffffffffffffffffffffffffffffff168473ffffffffffffffffffffffffffffffffffffffff16148061194a57506119498484610b74565b5b8061198857508273ffffffffffffffffffffffffffffffffffffffff1661197083610d80565b73ffffffffffffffffffffffffffffffffffffffff16145b5b90509392505050565b6000604051905090565b600080fd5b600080fd5b60007fffffffff0000000000000000000000000000000000000000000000000000000082169050919050565b6119db816119a6565b81146119e657600080fd5b50565b6000813590506119f8816119d2565b92915050565b600060208284031215611a1457611a1361199c565b5b6000611a22848285016119e9565b91505092915050565b60008115159050919050565b611a4081611a2b565b82525050565b6000602082019050611a5b6000830184611a37565b92915050565b600081519050919050565b600082825260208201905092915050565b60005b83811015611a9b578082015181840152602081019050611a80565b60008484015250505050565b6000601f19601f8301169050919050565b6000611ac382611a61565b611acd8185611a6c565b9350611add818560208601611a7d565b611ae681611aa7565b840191505092915050565b60006020820190508181036000830152611b0b8184611ab8565b905092915050565b6000819050919050565b611b2681611b13565b8114611b3157600080fd5b50565b600081359050611b4381611b1d565b92915050565b600060208284031215611b5f57611b5e61199c565b5b6000611b6d84828501611b34565b91505092915050565b600073ffffffffffffffffffffffffffffffffffffffff82169050919050565b6000611ba182611b76565b9050919050565b611bb181611b96565b82525050565b6000602082019050611bcc6000830184611ba8565b92915050565b611bdb81611b96565b8114611be657600080fd5b50565b600081359050611bf881611bd2565b92915050565b60008060408385031215611c1557611c1461199c565b5b6000611c2385828601611be9565b9250506020611c3485828601611b34565b9150509250929050565b600080600060608486031215611c5757611c5661199c565b5b6000611c6586828701611be9565b9350506020611c7686828701611be9565b9250506040611c8786828701611b34565b9150509250925092565b600060208284031215611ca757611ca661199c565b5b6000611cb584828501611be9565b91505092915050565b611cc781611b13565b82525050565b6000602082019050611ce26000830184611cbe565b92915050565b611cf181611a2b565b8114611cfc57600080fd5b50565b600081359050611d0e81611ce8565b92915050565b60008060408385031215611d2b57611d2a61199c565b5b6000611d3985828601611be9565b9250506020611d4a85828601611cff565b9150509250929050565b600080fd5b600080fd5b7f4e487b7100000000000000000000000000000000000000000000000000000000600052604160045260246000fd5b611d9682611aa7565b810181811067ffffffffffffffff82111715611db557611db4611d5e565b5b80604052505050565b6000611dc8611992565b9050611dd48282611d8d565b919050565b600067ffffffffffffffff821115611df457611df3611d5e565b5b611dfd82611aa7565b9050602081019050919050565b82818337600083830152505050565b6000611e2c611e2784611dd9565b611dbe565b905082815260208101848484011115611e4857611e47611d59565b5b611e53848285611e0a565b509392505050565b600082601f830112611e7057611e6f611d54565b5b8135611e80848260208601611e19565b91505092915050565b60008060008060808587031215611ea357611ea261199c565b5b6000611eb187828801611be9565b9450506020611ec287828801611be9565b9350506040611ed387828801611b34565b925050606085013567ffffffffffffffff811115611ef457611ef36119a1565b5b611f0087828801611e5b565b91505092959194509250565b600067ffffffffffffffff821115611f2757611f26611d5e565b5b611f3082611aa7565b9050602081019050919050565b6000611f50611f4b84611f0c565b611dbe565b905082815260208101848484011115611f6c57611f6b611d59565b5b611f77848285611e0a565b509392505050565b600082601f830112611f9457611f93611d54565b5b8135611fa4848260208601611f3d565b91505092915050565b60008060408385031215611fc457611fc361199c565b5b6000611fd285828601611be9565b925050602083013567ffffffffffffffff811115611ff357611ff26119a1565b5b611fff85828601611f7f565b9150509250929050565b600081519050919050565b600082825260208201905092915050565b6000819050602082019050919050565b600082825260208201905092915050565b600061205182611a61565b61205b8185612035565b935061206b818560208601611a7d565b61207481611aa7565b840191505092915050565b600061208b8383612046565b905092915050565b6000602082019050919050565b60006120ab82612009565b6120b58185612014565b9350836020820285016120c785612025565b8060005b8581101561210357848403895281516120e4858261207f565b94506120ef83612093565b925060208a019950506001810190506120cb565b50829750879550505050505092915050565b6000602082019050818103600083015261212f81846120a0565b905092915050565b6000806040838503121561214e5761214d61199c565b5b600061215c85828601611be9565b925050602061216d85828601611be9565b9150509250929050565b7f4e487b7100000000000000000000000000000000000000000000000000000000600052602260045260246000fd5b600060028204905060018216806121be57607f821691505b6020821081036121d1576121d0612177565b5b50919050565b60006060820190506121ec6000830186611ba8565b6121f96020830185611cbe565b6122066040830184611ba8565b949350505050565b7f4552433732314d657461646174613a2055524920717565727920666f72206e6f60008201527f6e6578697374656e7420746f6b656e0000000000000000000000000000000000602082015250565b600061226a602f83611a6c565b91506122758261220e565b604082019050919050565b600060208201905081810360008301526122998161225d565b9050919050565b7f4e6f7420617574686f72697a656420746f206d696e7400000000000000000000600082015250565b60006122d6601683611a6c565b91506122e1826122a0565b602082019050919050565b60006020820190508181036000830152612305816122c9565b9050919050565b7f4e487b7100000000000000000000000000000000000000000000000000000000600052601160045260246000fd5b600061234682611b13565b915061235183611b13565b92508282019050808211156123695761236861230c565b5b92915050565b600061237a82611b13565b915061238583611b13565b925082820390508181111561239d5761239c61230c565b5b92915050565b7f4e487b7100000000000000000000000000000000000000000000000000000000600052603260045260246000fd5b60006123dd82611b13565b91507fffffffffffffffffffffffffffffffffffffffffffffffffffffffffffffffff820361240f5761240e61230c565b5b600182019050919050565b600081519050919050565b600082825260208201905092915050565b60006124418261241a565b61244b8185612425565b935061245b818560208601611a7d565b61246481611aa7565b840191505092915050565b60006080820190506124846000830187611ba8565b6124916020830186611ba8565b61249e6040830185611cbe565b81810360608301526124b08184612436565b905095945050505050565b6000815190506124ca816119d2565b92915050565b6000602082840312156124e6576124e561199c565b5b60006124f4848285016124bb565b91505092915050565b7f4552433732314d657461646174613a2055524920736574206f66206e6f6e657860008201527f697374656e7420746f6b656e0000000000000000000000000000000000000000602082015250565b6000612559602c83611a6c565b9150612564826124fd565b604082019050919050565b600060208201905081810360008301526125888161254c565b9050919050565b60008190508160005260206000209050919050565b60006020601f8301049050919050565b600082821b905092915050565b6000600883026125f17fffffffffffffffffffffffffffffffffffffffffffffffffffffffffffffffff826125b4565b6125fb86836125b4565b95508019841693508086168417925050509392505050565b6000819050919050565b600061263861263361262e84611b13565b612613565b611b13565b9050919050565b6000819050919050565b6126528361261d565b61266661265e8261263f565b8484546125c1565b825550505050565b600090565b61267b61266e565b612686818484612649565b505050565b5b818110156126aa5761269f600082612673565b60018101905061268c565b5050565b601f8211156126ef576126c08161258f565b6126c9846125a4565b810160208510156126d8578190505b6126ec6126e4856125a4565b83018261268b565b50505b505050565b600082821c905092915050565b6000612712600019846008026126f4565b1980831691505092915050565b600061272b8383612701565b9150826002028217905092915050565b61274482611a61565b67ffffffffffffffff81111561275d5761275c611d5e565b5b61276782546121a6565b6127728282856126ae565b600060209050601f8311600181146127a55760008415612793578287015190505b61279d858261271f565b865550612805565b601f1984166127b38661258f565b60005b828110156127db578489015182556001820191506020850194506020810190506127b6565b868310156127f857848901516127f4601f891682612701565b8355505b6001600288020188555050505b505050505050565b60006040820190506128226000830185611ba8565b61282f6020830184611cbe565b939250505056fea26469706673582212201dfebf87298341919335972b8729a76c485700d68fad78917afe63f53e34958564736f6c63430008140033",
  "linkReferences": {},
  "deployedLinkReferences": {}
}